:020000040800F2
:1000000058490020E9010008990C00089B0C0008E1
:100010009F0C0008A30C0008A70C000800000000BB
:100020000000000000000000000000004501000882
:10003000AB0C00080000000089010008511F0008F7
:10004000030200080302000803020008030200087C
:10005000030200080302000803020008030200086C
:10006000030200080302000803020008030200085C
:10007000030200080302000803020008030200084C
:10008000030200080302000803020008030200083C
:10009000030200080302000803020008030200082C
:1000A000030200080302000803020008030200081C
:1000B000030200080302000803020008030200080C
:1000C00003020008030200080302000803020008FC
:1000D00003020008030200080302000803020008EC
:1000E00003020008030200080302000803020008DC
:1000F00003020008030200080302000803020008CC
:1001000003020008030200080302000803020008BB
:1001100003020008030200080302000803020008AB
:10012000030200080302000803020008030200089B
:10013000DFF80CD002F002F800480047350C000848
:1001400058490020204B19680868B0E8F00F80F388
:100150000988BFF36F8F4FF0000080F311884EF0D5
:100160000D0E70470000000006480068006880F32C
:10017000088862B661B6BFF34F8FBFF36F8F00DFA1
:1001800000BF00BF08ED00E0EFF30980BFF36F8F01
:100190000D4B1A6820E9F00F106008B54FF0BF0052
:1001A00080F3118801F01CF94FF0000080F31188F2
:1001B000BDE8084019680868B0E8F00F80F30988C6
:1001C000BFF36F8F704700BF34000020EFF3118042
:1001D0004FF0BF0181F31188704780F31188704799
:1001E000EFF3058070470000064880470648004747
:1001F000FEE7FEE7FEE7FEE7FEE7FEE7FEE7FEE7D7
:10020000FEE7FEE7E9020008310100080CB5002016
:10021000019000906B48006840F4803069490860A4
:1002200000BF6848006800F4003000900198401C4E
:100230000190009818B90198B0F5A06FF1D161480C
:10024000006810F4003F02D00120009001E000207F
:1002500000900098012842D15B48006840F01000EF
:10026000594908600846006820F003000860084605
:10027000006840F0020008605248406851494860F8
:100280000846406848600846406840F4806048601E
:100290000846406820F47C1048600846406840F4F6
:1002A000E81048600846006840F08070086000BFB1
:1002B0004448006810F0007FFAD04248406820F0BF
:1002C0000300404948600846406840F0020048602A
:1002D00000BF3C48406800F00C000828F9D10CBD74
:1002E00010B5FFF793FF10BD10B53648006840F019
:1002F00001003449086008464068344908403149E3
:10030000486008460068324908402E49086008469F
:10031000006820F4802008600846406820F4FE0051
:1003200048604FF41F008860FFF7DAFF4FF000606D
:100330002849086010BD10B5002100200022214B83
:100340005B6803F00C0121B1042906D0082928D1EB
:1003500007E0214B214C236027E01F4B1F4C2360FB
:1003600023E0184B5B6803F47010164B5B6803F4D2
:100370008032022303EB904022B9194B4343174CC0
:1003800023600DE00F4B5B6813F4003F04D0144B67
:100390004343124C236003E00F4B43430F4C236055
:1003A00003E00D4B0D4C236000BF00BF054B5B68A5
:1003B000C3F303130B4CE15C084B1B68CB40074CA9
:1003C000236010BD00100240002002400000FFF832
:1003D000FFFFF6FE08ED00E000127A0000000020AA
:1003E00000093D000400002031490143314A1160F9
:1003F000704770B5002100230F22C4780CB32D4C38
:10040000246804F4E064C4F5E064210AC1F1040343
:10041000CA40447804FA03F1847814402143090166
:10042000254C0678A155047804F01F050124AC4042
:1004300005786D114FF0E02606EB8505C5F8004103
:1004400009E0047804F01F050124AC401B4D067838
:10045000761145F8264070BD194A0A400243154BF3
:100460001B1F1A60704739B1124A121D12680243ED
:10047000104B1B1D1A6006E00E4A121D12688243C3
:100480000C4B1B1D1A607047042808D14FF0E02167
:10049000096941F004014FF0E022116107E04FF0DB
:1004A000E021096921F004014FF0E0221161704759
:1004B0000000FA050CED00E000E400E080E100E05F
:1004C00080FFFF1F10B50446CA48844208D10121AD
:1004D000042000F027FB0021042000F023FB46E06D
:1004E000C548844208D10121082000F01BFB0021EF
:1004F000082000F017FB3AE0C048844208D10121EF
:10050000102000F00FFB0021102000F00BFB2EE06C
:10051000BB48844208D10121202000F003FB0021C8
:10052000202000F0FFFA22E0B648844208D10121E1
:10053000402000F0F7FA0021402000F0F3FA16E026
:10054000B148844208D10121802000F0EBFA00215B
:10055000802000F0E7FA0AE0AC48844207D101218C
:10056000801500F0DFFA0021A01500F0DBFA10BDC5
:1005700010B50121084600F0D5FA0021012000F055
:10058000D1FA10BD2DE9F0410246002500260020D9
:1005900000230024002791F803C00CF00F0591F808
:1005A00003C01CF0100F03D091F802C04CEA0505FF
:1005B00091F800C0BCF1000F31D0146800202BE08E
:1005C0004FF0010C0CFA00F3B1F800C00CEA03067E
:1005D0009E4220D183004FF00F0C0CFA03F7BC436E
:1005E00005FA03FC4CEA040491F803C0BCF1280F9F
:1005F00006D14FF0010C0CFA00FCC2F814C00AE05E
:1006000091F803C0BCF1480F05D14FF0010C0CFA72
:1006100000FCC2F810C0401C0828D1D31460B1F807
:1006200000C0BCF1FF0F34DD546800202EE000F163
:10063000080C4FF0010808FA0CF3B1F800C00CEAFE
:1006400003069E4221D183004FF00F0C0CFA03F7F2
:10065000BC4305FA03FC4CEA040491F803C0BCF166
:10066000280F05D100F1080C08FA0CF8C2F8148024
:1006700091F803C0BCF1480F07D100F1080C4FF00E
:10068000010808FA0CF8C2F81080401C0828CED3E4
:100690005460BDE8F0814FF6FF7101800221817046
:1006A0000421C17070470246002093680B4201D0BC
:1006B000012000E0002070470146886880B2704742
:1006C00002460020D3680B4201D0012000E0002048
:1006D00070470146C86880B2704701617047416148
:1006E00070470AB1016100E041617047C160704725
:1006F0004FF480320A43826181618261826982693A
:10070000704702460020424B18684FF6807318402D
:1007100040EA021008433E4B186070473D49C861EB
:100720007047F0B50A46002300240021002500F0A0
:100730000046B6F1004F02D1354EF16901E0344E6A
:100740007168C0F3034583B200F44016B6F5401F4C
:1007500008D121F070612E4E766826F070662C4F1D
:100760007E6012E000F48016B6F5801F06D10326E5
:1007700006FA05F4A14341F0706106E0460D36012A
:1007800003FA06F6B14341F0706122B1460D36011D
:1007900003FA06F6314300F00046B6F1004F02D1ED
:1007A0001B4EF16101E01A4E7160F0BD30B50022C0
:1007B0008B071C0F0F2303FA04F2154B08338C1020
:1007C00053F824309343124C08348D1044F82530EC
:1007D00023468C1053F824308C07240F00FA04F4BD
:1007E00023430B4C08348D1044F8253030BD0A49A2
:1007F0000860704700080140000C014000100140F3
:100800000014014000180140001C0140002001407C
:100810000000014000002042DC002042DD4800686A
:1008200040F00100DB49086008464068DA490840AA
:10083000D849486008460068D8490840D54908604A
:100840000846006820F4802008600846406820F4CC
:10085000FE0048604FF41F0088607047CD4909686A
:1008600021F48031CB4A11601146096821F48021BE
:100870001160B0F5803F03D0B0F5802F0ED106E0B7
:10088000C449096841F48031C24A116007E0C14996
:10089000096841F4A021BF4A116000E000BF00BF19
:1008A000704710B501460022002300204A11012A9A
:1008B00002D1B84C236806E0022A02D1B54C236A63
:1008C00001E0B44C636A01F01F02012494401C4211
:1008D00001D0012000E0002010BD38B500200090BC
:1008E0000024002500BF3120FFF7DBFF05460098FC
:1008F000401C00900098B0F5A06F01D0002DF2D000
:100900003120FFF7CEFF08B1012400E0002420468B
:1009100038BD014600209F4A106820F0F80040EAE8
:10092000C100106070479E49086070470246002071
:10093000984B586820F47C1042EA01031843954B09
:100940005860704796490866704701460020914AF2
:10095000506820F003000843506070478D4840689D
:1009600000F00C007047014600208A4A506820F0D1
:10097000F00008435060704701460020854A5068E7
:1009800020F4E06008435060704701460020814A2F
:10099000506820F4605040EAC1005060704729B1AF
:1009A0007C4A527A02437B4B5A7204E0794A527A6B
:1009B0008243784B5A7270477A4908607047014603
:1009C0000020744A506820F440400843506070474B
:1009D0000021754A11706F4A82F82010012802D058
:1009E000042808D103E001216F4A117004E00521B9
:1009F0006D4A117000E000BF00BF70476B4908608E
:100A000070476449096A0143624A11627047674945
:100A100044390860704730B50021002200240023CB
:100A20005C4D6D6805F00C0121B1042905D0082941
:100A300023D105E05E4D056022E05D4D05601FE0BD
:100A4000544D6D6805F47012524D6D6805F4803494
:100A5000022505EB92421CB9564D554305600BE04B
:100A60004C4D6D6815F4003F03D0524D5543056061
:100A700002E04F4D5543056002E04D4D056000BF5B
:100A800000BF444D6D6805F0F00109094A4D6B5CEB
:100A90000568DD4045603F4D6D6805F4E061090A79
:100AA000454D6B5C4568DD4085603A4D6D6805F4E9
:100AB0006051C90A404D6B5C4568DD40C560354DED
:100AC0006D6805F44041890B3C4D6B5CC568B5FB16
:100AD000F3F5056130BD29B12E4A526902432D4B11
:100AE0005A6104E02B4A526982432A4B5A6170478B
:100AF00029B1284A92690243264B9A6104E0254AAB
:100B000092698243234B9A61704729B1214AD26985
:100B10000243204BDA6104E01E4AD26982431D4B36
:100B2000DA61704729B11B4AD2680243194BDA6077
:100B300004E0184AD2688243164BDA60704729B144
:100B4000144A12690243134B1A6104E0114A1269F4
:100B50008243104B1A61704714494039086070474E
:100B60000F49C86470470B49C87170470948406A0B
:100B700040F0807007494862704701460020054AEE
:100B800092680A4201D0012000E00020704701492C
:100B900088727047001002400000FFF8FFFFF6FE69
:100BA00000004242D80042422010024080044242EB
:100BB00000127A0000093D001400002024000020EB
:100BC0001FB50020214A0423CDE9012000930390A2
:100BD00003464FF400721EA1204800F027F90020C0
:100BE0001F4A0323CDE901200093039003464FF4ED
:100BF00000721CA11E4800F019F900201D4A0223B2
:100C0000CDE901200093039003464FF400721AA12E
:100C10001C4800F00BF900201B4A0123CDE90120FC
:100C20000093039003464FF4007218A1194800F096
:100C3000FDF81FBD012080F3108800BF00F036F8DA
:100C4000FFF7BEFF00F01CFD00BFFEE7880000209C
:100C5000765461736B204C454431000085200008B8
:100C600028000020765461736B204C45443200000C
:100C7000A52000082C000020765461736B204C45A1
:100C800044330000C5200008300000207654617312
:100C90006B2034000F210008704700BFFEE700BF43
:100CA000FEE700BFFEE700BFFEE7704710B54FF458
:100CB0004070FFF799FB01F063F901F087F910BD6F
:100CC00000F1080141604FF0FF31816000F108013F
:100CD000C16001610021016070470021016170471E
:100CE00042684A6093688B609368596091600861BC
:100CF00003685B1C0360704710B502460B685C1C00
:100D000001D1106907E002F1080000E04068446882
:100D100024689C42FAD944684C604C68A1608860A1
:100D200041600A611468641C146010BD01460A69C0
:100D3000D1E901309860D1E90103586050688842D8
:100D400001D188685060002008611068401E106062
:100D50001068704710B5002407E004EB8401F74ADF
:100D600002EB8100FFF7ACFF641C052CF5D3F448BF
:100D7000FFF7A6FFF348FFF7A3FFF348FFF7A0FF35
:100D8000F248FFF79DFFF248FFF79AFFEC48F14960
:100D90000860EC48F049086010BD2DE9F0470446B2
:100DA0000F4616469946DDF82080002507E0795D5C
:100DB00004F134004155785D00B902E06D1C102D3E
:100DC000F5D300BF002143200155052E00D3042692
:100DD000E662201DFFF781FF04F11800FFF77DFF99
:100DE0002461C6F10500A06164620020606484F89B
:100DF0004800BDE8F0872DE9F04106460F461FB9CF
:100E0000B00000F0C2FF00E03846054655B14C2066
:100E100000F0BBFF04460CB1256304E0284601F056
:100E200011F800E000242046BDE8F0812DE9FF4FD5
:100E300081B0804615469946DDE90E7A284610991C
:100E4000FFF7D9FF0446002C4FD0681E216B01EB41
:100E5000800B2BF0070B00953A462046119B029918
:100E6000FFF79BFF4A464146584601F023F82060B1
:100E7000BAF1000F01D0CAF8004001F04FF8B748AE
:100E80000068401CB5490860B548006840B9B448DE
:100E900004600846006801280CD1FFF75BFF09E0F9
:100EA000B048006830B9AE480068C06AB84201D89E
:100EB000AB480460AC480068401CAB49086094F83B
:100EC0002C1001208840A94909680843A7490860F7
:100ED000E16A01EB8101994A02EB8100211DFFF7D4
:100EE000FFFE012601F027F801E04FF0FF36012E4A
:100EF00009D19C48006830B199480068C06AB8427E
:100F000001D201F001F8304605B0BDE8F08F9149FB
:100F10000968096809B9012100E0002121B14FF0F9
:100F2000FF31934A116006E08A490968C968C868B8
:100F30008F4A41681160704770B5054600F0EEFFBA
:100F400015B98748006800E028460446201DFFF7D1
:100F5000EDFE78B9E06A00EB8000784951F8200096
:100F600040B994F82C1001208840804909688143D9
:100F70007E480160A06A18B104F11800FFF7D6FEA0
:100F8000211D7248FFF7ACFE7A480068401C794981
:100F9000086075480068401C7349086000F0CBFF8A
:100FA0007048006860B16E480068844202D100F069
:100FB000ABFF05E000F0B2FFFFF7A9FF00F0BBFFB9
:100FC00070BD2DE9F04100276B480068002865D10D
:100FD0006A480068401C69490860084606688EB97E
:100FE0005C48D0F800805C4800685A4908605A485C
:100FF000C0F8008062480068401C61490860FFF743
:1010000086FF00BF5A48006886423BD300BF514864
:101010000068006808B9012000E0002020B14FF00E
:10102000FF30534908602CE04A480068C068C46833
:101030006568AE4202D24E48056022E0201DFFF7EF
:1010400075FEA06A18B104F11800FFF76FFE94F85E
:101050002C1001208840454909680843434908602D
:10106000E16A01EB8101354A02EB8100211DFFF7A6
:1010700037FE3B49E06A0968C96A8842C7D301273D
:10108000C5E700BF36480068C06A00EB80002B4906
:1010900051F82000012806D9012704E039480068EA
:1010A000401C384908603848006800B101273846BC
:1010B000BDE8F08170B5002500F030FF2E480068D3
:1010C000401E2D49086008460068002874D1234856
:1010D0000068002870D024E01B48C068C46804F190
:1010E0001800FFF723FE201DFFF720FE94F82C10B8
:1010F000012088401D49096808431C490860E16ACD
:1011000001EB81010D4A02EB8100211DFFF7E8FD93
:101110001349E06A0968C96A884202D301201A4962
:1011200008600948006808B9012000E00020002894
:10113000D2D01448006800B133E036E08C000020C3
:10114000F000002004010020180100202C010020E4
:101150004001002064000020680000203C000020C6
:1011600034000020480000205800002044000020E7
:101170005C000020380000206000002040000020BB
:10118000540000204C00002050000020FFF719FF01
:1011900010B10120FE490860FE480068401EFD496C
:1011A0000860FC4800680028F0D1F9480068012870
:1011B00002D1012500F0A8FE00F0BDFE284670BD5A
:1011C00010B50446F44800684460F448006884425E
:1011D00007D2F1480168091DF1480068FFF78CFD4E
:1011E0000CE0ED480168091DEE480068FFF784FD3A
:1011F000ED480068844201D2EB48046010BDEB4822
:101200000068401CE949086070472DE9F047044632
:1012100088464FF00009FFF7F2FFE04807682068B2
:1012200000EB08052068B84207D92068A8420BD90E
:10123000BD4209D94FF0010906E02068A84201D853
:10124000BD4201D94FF001092560B9F1000F13D05B
:10125000D1480068001DFFF769FD50B9CE4800680D
:1012600090F82C1001208840D14909688143D0486A
:1012700001602846FFF7A4FFFFF71CFF06460EB9E2
:1012800000F042FEBDE8F08770B504460026DCB1F0
:10129000FFF7B5FFC14800680519BF480068001D89
:1012A000FFF744FD50B9BC48006890F82C100120AD
:1012B0008840BF4909688143BD4801602846FFF75F
:1012C0007FFFFFF7F7FE06460EB900F01DFE70BD6A
:1012D00070B5044600F022FE14B9AF48006800E083
:1012E00020460646F56A00F026FE284670BD2DE928
:1012F000F0410446FEF76AFF064614B9A6480068A6
:1013000000E020460746FD6A3046FEF766FF2846A5
:10131000BDE8F0812DE9F04780460D464FF0000909
:10132000052D00D3042500F0F9FDB8F1000F02D11E
:101330009948006800E040460446E66AAE424BD059
:10134000B5420BD99448006884420DD09248006899
:10135000C06AA84208D84FF0010905E08E4800682D
:10136000844201D14FF00109E76AE562A06910F0FB
:10137000004F02D1C5F10500A06107EB87018D4A3E
:1013800002EB81016069884201D1012000E0002068
:10139000E0B1201DFFF7CAFC30B90120B8408449F4
:1013A000096881438248016094F82C10012088402C
:1013B0007F49096808437E490860E16A01EB8101C1
:1013C0007C4A02EB8100211DFFF78AFCB9F1010F75
:1013D00001D100F099FD00BF00F0ADFDBDE8F08740
:1013E0007248006818B10120694908601DE00020BA
:1013F000674908606E480068B0FA80F0C0F11F01CC
:1014000001EB81026B4B03EB820042685268426041
:1014100000F108024368934202D142685268426078
:101420004268D2685C4B1A6000BF704770B50546D1
:1014300000F074FD15B95848006800E028460446DD
:10144000201DFFF773FC78B9E06A00EB8000594972
:1014500051F8200040B994F82C10012088405449DC
:101460000968814352480160A06A18B104F118006C
:10147000FFF75CFC211D5048FFF732FC00F05BFDDC
:1014800045480068844212D14C48006810B100F011
:101490003BFD15E04848006849490968884203D186
:1014A00000203D4908600BE0FFF79AFF08E0434841
:1014B000006828B100F032FDFFF729FD00F03BFD88
:1014C00070BD10B5014600200A463B4C5369A3424B
:1014D00001D1012300E0002373B13A4C936AA34287
:1014E00001D1012300E0002333B9936A0BB9012332
:1014F00000E0002303B1012010BD70B505462C4665
:101500004CB325480068844225D000F007FD2046F2
:10151000FFF7D7FF01281CD1201DFFF707FC94F827
:101520002C1001208840224909680843204908609E
:10153000E16A01EB81011F4A02EB8100211DFFF7E7
:10154000CFFB1549E06A0968C96A884201D300F0F7
:10155000DBFC00F0F0FC70BD2DE9F04105460026F3
:101560002C46FEF733FE07462046FFF7AAFF012868
:1015700042D10E48006850B90749E06A0968C96A53
:10158000884200D30126201DFFF7D0FB1CE02EE08F
:10159000500000204C0000203400002040000020BB
:1015A00068000020640000205C0000206000002033
:1015B000440000208C000020400100204800002052
:1015C0003C0000201801002094F82C1001208840D5
:1015D000FE4909680843FD490860E16A01EB8101A1
:1015E000FB4A02EB8100211DFFF77AFB04E004F1C6
:1015F0001801F848FFF774FB3846FEF7EEFD304659
:10160000BDE8F08110B50446206B00F01BFC2046BD
:1016100000F018FC10BD70B523E0FFF7F0FDEE48B8
:10162000006808B9012000E000200546FFF742FDF0
:10163000BDB900F073FCE848C068C468201DFFF71E
:1016400075FBE6480068401EE4490860E44800680D
:10165000401EE349086000F06EFC2046FFF7D2FF11
:1016600000BFDF4800680028D7D170BD00BFFFF77A
:10167000D2FFD74800680128F9D900F045FCF6E709
:101680001FB5002000900190029003468022D5A152
:101690000390D648FFF7CAFB0446012C0CD1FEF795
:1016A00095FDA01ED24908600120D24908600020A3
:1016B000D149086000F012FC1FBD10B5FEF786FD91
:1016C0000020CC49086000F01EFC10BDCA49086823
:1016D00070470021C84A10687047C04800687047CA
:1016E00070B506460C46C548016818313046FFF70C
:1016F00003FBC2480068001DFFF718FB50B9BF4844
:10170000006890F82C1001208840B0490968814396
:10171000AE480160601C06D1B8480168091DB84890
:10172000FFF7DEFA05E0B448006805192846FFF720
:1017300047FD70BD2DE9F04107460D46144645F0C2
:101740000040AE4909688861AC48016818313846E4
:10175000FFF7C6FAA9480068001DFFF7E7FA50B97D
:10176000A648006890F82C10012088409749096825
:10177000814396480160601C06D1A0480168091D9C
:101780009F48FFF7ADFA05E09B4800680619304610
:10179000FFF716FDBDE8F08170B50646F068C46835
:1017A00004F11800FFF7C2FA96480068A8B9201D96
:1017B000FFF7BCFA94F82C1001208840834909688F
:1017C000084382490860E16A01EB8101804A02EB2B
:1017D0008100211DFFF784FA04E004F118017D481F
:1017E000FFF77EFA8549E06A0968C96A884204D928
:1017F000012501208449086000E00025284670BDCD
:101800002DE9F04105460F4647F000402860EC689E
:101810002846FFF78BFA201DFFF788FA94F82C1062
:101820000120884069490968084368490860E16AFD
:1018300001EB8101664A02EB8100211DFFF750FA9E
:101840006E49E06A0968C96A884204D90126012004
:101850006D49086000E000263046BDE8F0816B4924
:1018600009680160644909684160704770B50446C1
:101870000D4600F053FB604802682868401C01D107
:10188000002619E0614920680968884204D0606830
:10189000904201D801260FE06068101A296888423A
:1018A00009D228686168511A401A28602046FFF75B
:1018B000D6FF002600E0012600F03DFB304670BD5B
:1018C00001205149086070474C49096888694B49B3
:1018D0000968C96AC1F10501484A126891617047F7
:1018E0002DE9F04106460C4600F018FB434800681D
:1018F000406C38BB01204149096881F848000CB3AD
:101900003E480068001DFFF711FA50B93B480068D7
:1019100090F82C10012088402C49096881432B48FD
:101920000160601C06D135480168091D3448FFF785
:10193000D7F905E03048006807193846FFF740FC42
:1019400000F0E2FA00F0F7FA00F0E8FA2B4800683D
:10195000456C65B126B1002028490968486406E055
:101960002649096801F14400496C491E01600020C4
:101970002249096881F8480000F0DDFA2846BDE8F0
:10198000F0812DE9F0470746884615461C4600F0D1
:10199000C5FA1A48006890F84800022854D0174940
:1019A000096801F14400496CB94301600120134901
:1019B000096881F8480044B110480068001DFFF72D
:1019C000B5F928BB0D48006823E03DE04400002045
:1019D0008C000020180100202C0100203C00002079
:1019E0003800002049444C45000000006D160008F6
:1019F0005C0000204800002040000020340000204F
:101A00004001002060000020500000205400002011
:101A100008E090F82C1001208840A449096881430F
:101A2000A2480160601C06D1A1480168091DA148B7
:101A3000FFF756F906E0A048006800EB04094846A5
:101A4000FFF7BEFB00F060FA00F075FA00F066FAEE
:101A50001DB197480068406C28609548006890F870
:101A60004800012801D1002608E09149096801F1E8
:101A70004400496C21EA08010160012600208C49DC
:101A8000096881F8480000F056FA3046BDE8F08752
:101A90002DE9F04781460D4616461F464FF0010AD4
:101AA0004C4600F03BFA0FB1606C386094F8488007
:101AB000022084F84800052E17D2DFE806F015034F
:101AC000070B0D00606C284360640EE0606C401CE6
:101AD00060640AE0656408E0B8F1020F01D0656453
:101AE00001E04FF0000A00E000BF00BFB8F1010FB5
:101AF0001CD1201DFFF71AF994F82C100120884002
:101B00006A490968084369490860E16A01EB810193
:101B10006A4A02EB8100211DFFF7E2F86449E06A9E
:101B20000968C96A884201D900F0EEF900F003FAA9
:101B30005046BDE8F0872DE9F84F81460D46164620
:101B40001F46DDF828A04FF0010B4C46FEF73EFB88
:101B500000900FB1606C386094F84880022084F8DF
:101B60004800052E17D2DFE806F01503070B0D001D
:101B7000606C284360640EE0606C401C60640AE0A6
:101B8000656408E0B8F1020F01D0656401E04FF030
:101B9000000B00E000BF00BFB8F1010F29D1484899
:101BA0000068A8B9201DFFF7C1F894F82C10012097
:101BB00088403E49096808433C490860E16A01EBF6
:101BC00081013E4A02EB8100211DFFF789F804E004
:101BD00004F118013B48FFF783F83549E06A0968CA
:101BE000C96A884205D9BAF1000F02D00120CAF8AB
:101BF00000000098FEF7F1FA5846BDE8F88F2DE98D
:101C0000F04105460E462C46FEF7E0FA804694F871
:101C10004870022084F84800606C401C6064012F0A
:101C200026D127480068A8B9201DFFF77FF894F84F
:101C30002C10012088401D49096808431B49086091
:101C4000E16A01EB81011D4A02EB8100211DFFF7D2
:101C500047F804E004F118011A48FFF741F8144965
:101C6000E06A0968C96A884202D90EB10120306071
:101C70004046FEF7B2FABDE8F08170B5044626464C
:101C800016B90B48006800E03046064600F046F9F9
:101C900096F84800022804D1002086F84800012563
:101CA00000E0002500F047F9284670BD4400002000
:101CB0003400002040010020400000208C00002063
:101CC000600000201801002010B50146714800E0B6
:101CD000006803688B42FBD30246436813448B427F
:101CE00004D143684C682344436001460A464B686C
:101CF00013440468A34211D1674C03682468A342CB
:101D000008D04B680468646823444B6003681B6810
:101D10000B6005E0604B1B680B6001E003680B6023
:101D2000884200D0016010BD30B54FF488435B4855
:101D300010F0070F05D0C01D20F00700574C041B02
:101D40001B1B0246534C22600024524D6C60D0187D
:101D5000083820F00700504C206000244E4D2D68BC
:101D60006C604D4D2D682C601146441A4C604A4CF5
:101D700024680C604A4D4C682C604A4D4C682C60BD
:101D80004FF00044484D2C6030BD2DE9F041054630
:101D90004FF00008FFF733FA3F48006808B9FFF733
:101DA000C3FF41480068054247D145B1083515F0E9
:101DB000070F04D005F00700C0F108000544002D0E
:101DC0003BD038480068854237D8324E30460468E8
:101DD00001E0264624686068A84202D220680028F4
:101DE000F7D12D480068844227D0306800F10808F8
:101DF000206830606068401B102807D96719606848
:101E0000401B786065603846FFF75EFF25496068D3
:101E10000968081A234908600846006820490968CB
:101E2000884203D21F4800681D4908601E49606847
:101E300009680843606000202060FFF73BF94046D6
:101E4000BDE8F08170B506463546D6B1083D2C4652
:101E5000154960680968084213D0206888B912499A
:101E60006068096888436060FFF7C9F90D496068D8
:101E7000096808440B4908602046FFF725FFFFF773
:101E800019F970BD07480068704705480068704739
:101E9000704700007C0000206C00002054010020EE
:101EA000740000207000002078000020FEF78EF9FA
:101EB00000BFFEE7001F4FF080730360001F01604A
:101EC000001F2B4B036014380260203870472948EC
:101ED0004FF0E021486107200861704710B526489F
:101EE000006840F47F00244908600846006840F01C
:101EF0007F400860FFF7EBFF002020490860FEF7F5
:101F000033F9002010BD70474FF080501A491C393A
:101F10000860BFF34F8FBFF36F8F704710B5FEF7A8
:101F200055F916480068401C14490860BFF34F8FEC
:101F3000BFF36F8F10BD10B510480068401E0F49E9
:101F400008600846006810B90020FEF746F910BD89
:101F500010B5FEF73BF9FFF734F820B14FF0805091
:101F600005491C3908600020FEF737F910BD000054
:101F7000AD1E00083F19010020ED00E084000020A4
:101F800008B501218820FEF7B3FD2020ADF8000040
:101F900010208DF8030003208DF8020069460948DF
:101FA000FEF7F0FA4FF4C070ADF8000010208DF885
:101FB000030003208DF8020069460348FEF7E2FAA9
:101FC00008BD0000000C0140001C014008B50121C3
:101FD0000420FEF78DFD01211020FEF789FD4FF44E
:101FE0000050ADF8000028208DF803006946234812
:101FF000FEF7C8FA0120ADF8000048208DF8030074
:1020000069461F48FEF7BEFA08BD10B501211C48FD
:10201000FEF749FB012812D16420FFF735F90121B1
:102020001748FEF740FB012809D100BF01211448E1
:10203000FEF739FB0028F9D06420FFF725F910BD21
:1020400010B54FF400510D48FEF72DFB012814D1B7
:102050006420FFF719F94FF400510848FEF723FBFD
:1020600001280AD100BF4FF400510448FEF71BFBC2
:102070000028F8D06420FFF707F910BD00100140D8
:10208000000801400DE020211848FEF728FB6420DD
:10209000FFF7FAF820211548FEF71FFB6420FFF731
:1020A000F3F8F0E70DE080211148FEF716FBC82099
:1020B000FFF7EAF880210E48FEF711FBC820FFF772
:1020C000E3F8F0E711E04FF480710948FEF705FBF3
:1020D0004FF49670FFF7D8F84FF480710448FEF77C
:1020E000FEFA4FF49670FFF7CFF8ECE7000C0140D2
:1020F000001C014010B50F480068FFF72DFA044698
:10210000012C03D114B100070B49086010BD0FE08A
:10211000FFF77BFF20B107480068FFF787F904E06D
:10212000FFF78EFF08B1FFF7E5FF1420FFF7ACF8CB
:10213000EEE700008800002004ED00E0064C074DAB
:1021400006E0E06840F0010394E807009847103487
:10215000AC42F6D3FDF7F0FF80210008A021000873
:1021600002E008C8121F08C1002AFAD17047704760
:10217000002001E001C1121F002AFBD170470000BE
:10218000A0210008000000208C0000006021000851
:102190002C2200088C000020CC4800007021000890
:1021A00000A24A0400000000000000000102030435
:1021B00006070809000000000102030401020304ED
:1021C00006070809020406080000000000000000DD
:1021D00000000000000000000000000000000000FF
:1021E00000000000000000000000000000000000EF
:1021F00000000000000000000000000000000000DF
:1022000000000000000000000000000000000000CE
:1022100000000000000000000000000000000000BE
:0C22200000000000AAAAAAAA000000000A
:0400000508000131BD
:00000001FF
