:020000040800F2
:1000000058490020E9010008A9100008AB100008B9
:10001000AF100008B3100008B7100008000000007F
:100020000000000000000000000000004501000882
:10003000BB1000080000000089010008ED25000841
:10004000030200080302000803020008030200087C
:10005000030200080302000803020008030200086C
:10006000030200080302000803020008030200085C
:10007000030200080302000803020008030200084C
:10008000030200080302000803020008030200083C
:10009000030200080302000803020008030200082C
:1000A000030200080302000803020008030200081C
:1000B000030200080302000803020008030200080C
:1000C00003020008030200080302000803020008FC
:1000D00003020008030200080302000803020008EC
:1000E00003020008030200080302000803020008DC
:1000F00003020008030200080302000803020008CC
:1001000003020008030200080302000803020008BB
:1001100003020008030200080302000803020008AB
:10012000030200080302000803020008030200089B
:10013000DFF80CD002F03AFC004800473D10000800
:1001400058490020204B19680868B0E8F00F80F388
:100150000988BFF36F8F4FF0000080F311884EF0D5
:100160000D0E70470000000006480068006880F32C
:10017000088862B661B6BFF34F8FBFF36F8F00DFA1
:1001800000BF00BF08ED00E0EFF30980BFF36F8F01
:100190000D4B1A6820E9F00F106008B54FF0BF0052
:1001A00080F3118801F02BFB4FF0000080F31188E1
:1001B000BDE8084019680868B0E8F00F80F30988C6
:1001C000BFF36F8F704700BF38000020EFF311803E
:1001D0004FF0BF0181F31188704780F31188704799
:1001E000EFF3058070470000064880470648004747
:1001F000FEE7FEE7FEE7FEE7FEE7FEE7FEE7FEE7D7
:10020000FEE7FEE7E9020008310100080CB5002016
:10021000019000906B48006840F4803069490860A4
:1002200000BF6848006800F4003000900198401C4E
:100230000190009818B90198B0F5A06FF1D161480C
:10024000006810F4003F02D00120009001E000207F
:1002500000900098012842D15B48006840F01000EF
:10026000594908600846006820F003000860084605
:10027000006840F0020008605248406851494860F8
:100280000846406848600846406840F4806048601E
:100290000846406820F47C1048600846406840F4F6
:1002A000E81048600846006840F08070086000BFB1
:1002B0004448006810F0007FFAD04248406820F0BF
:1002C0000300404948600846406840F0020048602A
:1002D00000BF3C48406800F00C000828F9D10CBD74
:1002E00010B5FFF793FF10BD10B53648006840F019
:1002F00001003449086008464068344908403149E3
:10030000486008460068324908402E49086008469F
:10031000006820F4802008600846406820F4FE0051
:1003200048604FF41F008860FFF7DAFF4FF000606D
:100330002849086010BD10B5002100200022214B83
:100340005B6803F00C0121B1042906D0082928D1EB
:1003500007E0214B214C236027E01F4B1F4C2360FB
:1003600023E0184B5B6803F47010164B5B6803F4D2
:100370008032022303EB904022B9194B4343174CC0
:1003800023600DE00F4B5B6813F4003F04D0144B67
:100390004343124C236003E00F4B43430F4C236055
:1003A00003E00D4B0D4C236000BF00BF054B5B68A5
:1003B000C3F303130B4CE15C084B1B68CB40074CA9
:1003C000236010BD00100240002002400000FFF832
:1003D000FFFFF6FE08ED00E000127A0000000020AA
:1003E00000093D000400002031490143314A1160F9
:1003F000704770B5002100230F22C4780CB32D4C38
:10040000246804F4E064C4F5E064210AC1F1040343
:10041000CA40447804FA03F1847814402143090166
:10042000254C0678A155047804F01F050124AC4042
:1004300005786D114FF0E02606EB8505C5F8004103
:1004400009E0047804F01F050124AC401B4D067838
:10045000761145F8264070BD194A0A400243154BF3
:100460001B1F1A60704739B1124A121D12680243ED
:10047000104B1B1D1A6006E00E4A121D12688243C3
:100480000C4B1B1D1A607047042808D14FF0E02167
:10049000096941F004014FF0E022116107E04FF0DB
:1004A000E021096921F004014FF0E0221161704759
:1004B0000000FA050CED00E000E400E080E100E05F
:1004C00080FFFF1F10B50446CA48844208D10121AD
:1004D000042000F027FB0021042000F023FB46E06D
:1004E000C548844208D10121082000F01BFB0021EF
:1004F000082000F017FB3AE0C048844208D10121EF
:10050000102000F00FFB0021102000F00BFB2EE06C
:10051000BB48844208D10121202000F003FB0021C8
:10052000202000F0FFFA22E0B648844208D10121E1
:10053000402000F0F7FA0021402000F0F3FA16E026
:10054000B148844208D10121802000F0EBFA00215B
:10055000802000F0E7FA0AE0AC48844207D101218C
:10056000801500F0DFFA0021A01500F0DBFA10BDC5
:1005700010B50121084600F0D5FA0021012000F055
:10058000D1FA10BD2DE9F0410246002500260020D9
:1005900000230024002791F803C00CF00F0591F808
:1005A00003C01CF0100F03D091F802C04CEA0505FF
:1005B00091F800C0BCF1000F31D0146800202BE08E
:1005C0004FF0010C0CFA00F3B1F800C00CEA03067E
:1005D0009E4220D183004FF00F0C0CFA03F7BC436E
:1005E00005FA03FC4CEA040491F803C0BCF1280F9F
:1005F00006D14FF0010C0CFA00FCC2F814C00AE05E
:1006000091F803C0BCF1480F05D14FF0010C0CFA72
:1006100000FCC2F810C0401C0828D1D31460B1F807
:1006200000C0BCF1FF0F34DD546800202EE000F163
:10063000080C4FF0010808FA0CF3B1F800C00CEAFE
:1006400003069E4221D183004FF00F0C0CFA03F7F2
:10065000BC4305FA03FC4CEA040491F803C0BCF166
:10066000280F05D100F1080C08FA0CF8C2F8148024
:1006700091F803C0BCF1480F07D100F1080C4FF00E
:10068000010808FA0CF8C2F81080401C0828CED3E4
:100690005460BDE8F0814FF6FF7101800221817046
:1006A0000421C17070470246002093680B4201D0BC
:1006B000012000E0002070470146886880B2704742
:1006C00002460020D3680B4201D0012000E0002048
:1006D00070470146C86880B2704701617047416148
:1006E00070470AB1016100E041617047C160704725
:1006F0004FF480320A43826181618261826982693A
:10070000704702460020424B18684FF6807318402D
:1007100040EA021008433E4B186070473D49C861EB
:100720007047F0B50A46002300240021002500F0A0
:100730000046B6F1004F02D1354EF16901E0344E6A
:100740007168C0F3034583B200F44016B6F5401F4C
:1007500008D121F070612E4E766826F070662C4F1D
:100760007E6012E000F48016B6F5801F06D10326E5
:1007700006FA05F4A14341F0706106E0460D36012A
:1007800003FA06F6B14341F0706122B1460D36011D
:1007900003FA06F6314300F00046B6F1004F02D1ED
:1007A0001B4EF16101E01A4E7160F0BD30B50022C0
:1007B0008B071C0F0F2303FA04F2154B08338C1020
:1007C00053F824309343124C08348D1044F82530EC
:1007D00023468C1053F824308C07240F00FA04F4BD
:1007E00023430B4C08348D1044F8253030BD0A49A2
:1007F0000860704700080140000C014000100140F3
:100800000014014000180140001C0140002001407C
:100810000000014000002042DC002042DD4800686A
:1008200040F00100DB49086008464068DA490840AA
:10083000D849486008460068D8490840D54908604A
:100840000846006820F4802008600846406820F4CC
:10085000FE0048604FF41F0088607047CD4909686A
:1008600021F48031CB4A11601146096821F48021BE
:100870001160B0F5803F03D0B0F5802F0ED106E0B7
:10088000C449096841F48031C24A116007E0C14996
:10089000096841F4A021BF4A116000E000BF00BF19
:1008A000704710B501460022002300204A11012A9A
:1008B00002D1B84C236806E0022A02D1B54C236A63
:1008C00001E0B44C636A01F01F02012494401C4211
:1008D00001D0012000E0002010BD38B500200090BC
:1008E0000024002500BF3120FFF7DBFF05460098FC
:1008F000401C00900098B0F5A06F01D0002DF2D000
:100900003120FFF7CEFF08B1012400E0002420468B
:1009100038BD014600209F4A106820F0F80040EAE8
:10092000C100106070479E49086070470246002071
:10093000984B586820F47C1042EA01031843954B09
:100940005860704796490866704701460020914AF2
:10095000506820F003000843506070478D4840689D
:1009600000F00C007047014600208A4A506820F0D1
:10097000F00008435060704701460020854A5068E7
:1009800020F4E06008435060704701460020814A2F
:10099000506820F4605040EAC1005060704729B1AF
:1009A0007C4A527A02437B4B5A7204E0794A527A6B
:1009B0008243784B5A7270477A4908607047014603
:1009C0000020744A506820F440400843506070474B
:1009D0000021754A11706F4A82F82010012802D058
:1009E000042808D103E001216F4A117004E00521B9
:1009F0006D4A117000E000BF00BF70476B4908608E
:100A000070476449096A0143624A11627047674945
:100A100044390860704730B50021002200240023CB
:100A20005C4D6D6805F00C0121B1042905D0082941
:100A300023D105E05E4D056022E05D4D05601FE0BD
:100A4000544D6D6805F47012524D6D6805F4803494
:100A5000022505EB92421CB9564D554305600BE04B
:100A60004C4D6D6815F4003F03D0524D5543056061
:100A700002E04F4D5543056002E04D4D056000BF5B
:100A800000BF444D6D6805F0F00109094A4D6B5CEB
:100A90000568DD4045603F4D6D6805F4E061090A79
:100AA000454D6B5C4568DD4085603A4D6D6805F4E9
:100AB0006051C90A404D6B5C4568DD40C560354DED
:100AC0006D6805F44041890B3C4D6B5CC568B5FB16
:100AD000F3F5056130BD29B12E4A526902432D4B11
:100AE0005A6104E02B4A526982432A4B5A6170478B
:100AF00029B1284A92690243264B9A6104E0254AAB
:100B000092698243234B9A61704729B1214AD26985
:100B10000243204BDA6104E01E4AD26982431D4B36
:100B2000DA61704729B11B4AD2680243194BDA6077
:100B300004E0184AD2688243164BDA60704729B144
:100B4000144A12690243134B1A6104E0114A1269F4
:100B50008243104B1A61704714494039086070474E
:100B60000F49C86470470B49C87170470948406A0B
:100B700040F0807007494862704701460020054AEE
:100B800092680A4201D0012000E00020704701492C
:100B900088727047001002400000FFF8FFFFF6FE69
:100BA00000004242D80042422010024080044242EB
:100BB00000127A0000093D001400002024000020EB
:100BC00010B50446FB48844209D101218803FFF790
:100BD000A9FF00214FF48040FFF7A4FF32E0F64860
:100BE000844209D101214804FFF7A9FF00214FF4F5
:100BF0000030FFF7A4FF25E0F048844209D101212D
:100C00008804FFF79CFF00214FF48020FFF797FF37
:100C100018E0EB48844209D10121C804FFF78FFF97
:100C200000214FF40020FFF78AFF0BE0E5488442E3
:100C300008D101210805FFF782FF00214FF4801041
:100C4000FFF77DFF10BD2DE9F04786B005460E4643
:100C50000024A24600BFA1460027B08900B100BF12
:100C60002F462C8A4CF6FF700440F08804432C82F7
:100C7000AC894EF6F3100440B0883189084371897D
:100C800008430443AC81AC8A4FF6FF400440B0896E
:100C90000443AC8201A8FFF7BEFEC648874202D1DA
:100CA000DDF810A001E0DDF80CA0A88910F4004FD9
:100CB00008D00AEBCA0000EB0A1031684900B0FB0B
:100CC000F1F807E00AEBCA0000EB0A10316889006E
:100CD000B0FBF1F86420B8FBF0F0040120096421B6
:100CE00001FB1089A88910F4004F08D0322000EBD6
:100CF000C900B0FBF1F000F00700044308E0322027
:100D000000EB09106421B0FBF1F000F00F00044388
:100D10002C8106B0BDE8F0874FF416510160002128
:100D20008180C18001810C21418100218181704736
:100D300010B502460020108A4FF2FF0318400B88BE
:100D40004C8823438C882343CC8823431843108248
:100D500010BD0021018041808180C180704721B198
:100D6000828942F40052828104E082894DF6FF7349
:100D70001A4082817047F0B5034600240026002502
:100D80000020A1F510676A3F00D100BF1846C1F3EB
:100D9000421401F01F06012707FA06F5012C01D1C4
:100DA0000C3004E0022C01D1103000E014301AB1F4
:100DB00007682F43076002E00768AF430760F0BD94
:100DC0001AB1838A0B43838202E0838A8B43838236
:100DD0007047028A4FF6F0731A400282028A0A4371
:100DE0000282704782894FF2FF731A4082818289A2
:100DF0000A438281704721B1828942F002028281D6
:100E000004E082894FF6FD731A4082817047028A9E
:100E10004FF6DF731A400282028A0A430282704749
:100E200021B1028A42F48042028204E0028A4BF637
:100E3000FF731A4002827047C1F308028280704734
:100E400001468888C0F308007047818941F001019C
:100E500081817047028BD2B20283028B42EA012267
:100E600002837047028B02F47F420283028B0A43A3
:100E70000283704721B1828A42F02002828204E01C
:100E8000828A4FF6DF731A408282704721B1828ACC
:100E900042F01002828204E0828A4FF6EF731A4019
:100EA0008282704721B1828A42F00802828204E085
:100EB000828A4FF6F7731A408282704721B1828985
:100EC00042F40042828103E08289C2F30E028281F1
:100ED000704721B1828A42F40062828204E0828AF1
:100EE0004FF2FF731A4082827047828A4FF6FB737B
:100EF0001A408282828A0A438282704721B1828AA2
:100F000042F00202828204E0828A4FF6FD731A40A8
:100F10008282704702460020B1F5007F00D100BFF9
:100F200013880B4201D0012000E00020704701F43B
:100F30000072B2F5007F00D100BFCA430280704743
:100F400070B502460024002300250020A1F510669C
:100F50006A3E00D100BFC1F3421501F01F03012614
:100F600006FA03F3012D02D19689334006E0022DE3
:100F700002D1168A334001E0968A33400C120126D2
:100F800006FA04F41688344013B10CB1012000E0D5
:100F9000002070BD10B500220023A1F510646A3C4A
:100FA00000D100BF0A1201249440A3B2DC430480A4
:100FB00010BD0000003801400044004000480040DF
:100FC000004C0040005000401FB50020224A012381
:100FD000CDE901200093039003464FF400721FA156
:100FE000214800F02FF90020204A0223CDE90120FA
:100FF0000093039003464FF400721DA11F4800F0B8
:1010000021F900201E4A0323CDE90120009303901B
:1010100003464FF400721BA11D4800F013F9002095
:101020001C4A0323CDE901200093039003464FF4AB
:10103000007219A11B4800F005F91FBD10B5012071
:1010400080F3108800BF00F039F8FFF7BDFF00F013
:1010500033FD002010BD0000280000205461736B98
:10106000204C454431000000C12700082C0000201E
:101070005461736B204C454432000000E1270008A6
:10108000300000205461736B204C45443300000055
:1010900001280008340000205461736B204B45592F
:1010A0000000000053280008704700BFFEE700BFA3
:1010B000FEE700BFFEE700BFFEE7704710B54FF444
:1010C0004070FFF791F901F0A9FA10BD00F1080195
:1010D00041604FF0FF31816000F10801C1600161A2
:1010E00000210160704700210161704742684A6039
:1010F00093688B60936859609160086103685B1C1A
:101100000360704710B502460B685C1C01D1106982
:1011100007E002F1080000E04068446824689C424F
:10112000FAD944684C604C68A160886041600A61EB
:101130001468641C146010BD01460A69D1E90130CD
:101140009860D1E9010358605068884201D18868ED
:101150005060002008611068401E106010687047E1
:1011600010B5002407E004EB8401F84A02EB81008B
:10117000FFF7ACFF641C052CF5D3F548FFF7A6FF7D
:10118000F448FFF7A3FFF448FFF7A0FFF348FFF789
:101190009DFFF348FFF79AFFED48F2490860ED48DC
:1011A000F149086010BD2DE9F04704460F46164688
:1011B0009946DDF82080002507E0795D04F13400D0
:1011C0004155785D00B902E06D1C102DF5D300BFCC
:1011D000002143200155052E00D30426E662201D80
:1011E000FFF781FF04F11800FFF77DFF2461C6F1CE
:1011F0000500A06164620020E06484F85000BDE84E
:10120000F0872DE9F04105460F461FB9A80001F00F
:101210000AF900E03846064656B1542001F003F9B9
:1012200004460CB1266304E0304601F059F900E0B1
:10123000002424B1A900A522206B01F07FFB2046E9
:10124000BDE8F0812DE9FF4F81B0804615469946F3
:10125000DDE90E7A28461099FFF7D3FF0446002CEB
:1012600052D0681E216B01EB800B2BF0070B009511
:101270003A462046119B0299FFF795FF4A464146A0
:10128000584601F065F92060BAF1000F01D0CAF8A4
:10129000004001F091F9B5480068401CB34908606E
:1012A000B348006840B9B2480460084600680128A5
:1012B0000CD1FFF755FF09E0AE48006830B9AC48E3
:1012C0000068C06AB84201D8A9480460AA4800680A
:1012D000401CA949086008460068606494F82C1016
:1012E00001208840A54909680843A4490860E16ACB
:1012F00001EB8101954A02EB8100211DFFF7F6FE0B
:10130000012601F066F901E04FF0FF36012E09D108
:101310009848006830B196480068C06AB84201D267
:1013200001F040F9304605B0BDE8F08F8D490968FD
:10133000096809B9012100E0002121B14FF0FF3116
:101340008F4A116006E087490968C968C8688C4AF5
:1013500041681160704770B5054601F02DF915B967
:101360008348006800E028460446201DFFF7E4FE9D
:1013700078B9E06A00EB8000744951F8200040B968
:1013800094F82C10012088407C49096881437B48EF
:101390000160A06A18B104F11800FFF7CDFE211D0D
:1013A0006E48FFF7A3FE77480068401C7549086047
:1013B00071480068401C7049086001F00AF96D48E6
:1013C000006860B16A480068844202D101F0EAF81E
:1013D00005E001F0F1F8FFF7A9FF01F0FAF870BDA0
:1013E0002DE9F041002768480068002865D167486A
:1013F0000068401C65490860084606688EB959486F
:10140000D0F8008058480068564908605648C0F82F
:1014100000805F480068401C5D490860FFF786FF58
:1014200000BF5748006886423BD300BF4D48006864
:10143000006808B9012000E0002020B14FF0FF3023
:101440004F4908602CE047480068C068C468656878
:10145000AE4202D24A48056022E0201DFFF76CFE32
:10146000A06A18B104F11800FFF766FE94F82C107A
:101470000120884041490968084340490860E16A01
:1014800001EB8101314A02EB8100211DFFF72EFEA5
:101490003749E06A0968C96A8842C7D30127C5E7A6
:1014A00000BF33480068C06A00EB8000274951F84C
:1014B0002000012806D9012704E036480068401CB6
:1014C000344908603448006800B101273846BDE857
:1014D000F08170B5002501F06FF82B480068401EC0
:1014E0002949086008460068002874D11F48006830
:1014F000002870D024E01848C068C46804F11800BF
:10150000FFF71AFE201DFFF717FE94F82C1001209C
:1015100088401A490968084318490860E16A01EBE4
:1015200081010A4A02EB8100211DFFF7DFFD10490E
:10153000E06A0968C96A884202D301201649086036
:101540000548006808B9012029E027E09000002044
:10155000F4000020080100201C01002030010020C0
:1015600044010020680000206C00002040000020A2
:10157000380000204C0000205C00002048000020C3
:10158000600000203C000020640000204400002097
:1015900058000020500000205400002000200028A7
:1015A000A9D0FC48006878B10AE0FFF719FF10B134
:1015B0000120F9490860F7480068401EF5490860B5
:1015C000F44800680028F0D1F3480068012802D1EF
:1015D000012500F0E7FF00F0FCFF284670BD10B5C4
:1015E0000446EE4800684460ED480068844207D233
:1015F000EA480168091DEB480068FFF783FD0CE02D
:10160000E6480168091DE8480068FFF77BFDE748E8
:101610000068844201D2E548046010BDE4480068D7
:10162000401CE349086070472DE9F04704468846AE
:101630004FF00009FFF7F2FFD9480768206800EB78
:1016400008052068B84207D92068A8420BD9BD42D6
:1016500009D94FF0010906E02068A84201D8BD422F
:1016600001D94FF001092560B9F1000F13D0CB4823
:101670000068001DFFF760FD50B9C848006890F889
:101680002C1001208840CB4909688143C94801607A
:101690002846FFF7A4FFFFF71CFF06460EB900F02F
:1016A00081FFBDE8F08770B504460026DCB1FFF786
:1016B000B5FFBB4800680519B8480068001DFFF772
:1016C0003BFD50B9B548006890F82C1001208840C7
:1016D000B84909688143B74801602846FFF77FFF92
:1016E000FFF7F7FE06460EB900F05CFF70BD70B55F
:1016F000044600F061FF14B9A848006800E02046E5
:101700000646F56A00F065FF284670BD2DE9F041F8
:101710000446FEF75BFD064614B9A048006800E0E9
:1017200020460746FD6A3046FEF757FD2846BDE8CD
:10173000F0812DE9F04780460D464FF00009052D58
:1017400000D3042500F038FFB8F1000F02D1934810
:10175000006800E040460446E66AAE424BD0B5421F
:101760000BD98E48006884420DD08C480068C06A4E
:10177000A84208D84FF0010905E088480068844273
:1017800001D14FF00109E76AE562A06910F0004F4E
:1017900002D1C5F10500A06107EB8701864A02EB83
:1017A00081016069884201D1012000E00020E0B1A0
:1017B000201DFFF7C1FC30B90120B8407D49096800
:1017C00081437C48016094F82C10012088407949BD
:1017D0000968084377490860E16A01EB8101764AAC
:1017E00002EB8100211DFFF781FCB9F1010F01D14E
:1017F00000F0D8FE00BF00F0ECFEBDE8F08710B5A9
:101800006B48006818B10120634908602BE0002094
:101810006149086061480068006860490968096BAF
:10182000884205D85D4801683431006801F031F81C
:1018300060480068B0FA80F0C0F11F0101EB81023E
:101840005D4B03EB820042685268426000F108027F
:101850004368934202D14268526842604268D2684B
:101860004E4B1A6000BF10BD70B5054600F0A4FED7
:1018700015B94A48006800E028460446201DFFF7D5
:101880005BFC78B9E06A00EB80004B4951F820001E
:1018900040B994F82C1001208840464909688143DA
:1018A00044480160A06A18B104F11800FFF744FC35
:1018B000211D4248FFF71AFC00F08BFE37480068F4
:1018C000844212D13E48006810B100F06BFE15E072
:1018D0003A4800683B490968884203D100202F49F3
:1018E00008600BE0FFF78BFF08E03548006828B17F
:1018F00000F062FEFFF71AFD00F06BFE70BD10B540
:10190000014600200A462D4C5369A34201D1012310
:1019100000E0002373B12C4C936AA34201D1012350
:1019200000E0002333B9936A0BB9012300E00023E0
:1019300003B1012010BD70B505462C464CB31748C5
:101940000068844225D000F037FE2046FFF7D7FF1D
:1019500001281CD1201DFFF7EFFB94F82C1001206B
:10196000884014490968084312490860E16A01EB9C
:101970008101114A02EB8100211DFFF7B7FB0749E6
:10198000E06A0968C96A884201D300F00BFE00F0E2
:1019900020FE70BD500000205400002038000020C0
:1019A000440000206C00002068000020600000203F
:1019B0006400002048000020900000204401002026
:1019C0004C000020400000201C0100202DE9F041C7
:1019D000054600262C46FEF7F9FB07462046FFF792
:1019E0008EFF012824D1FC480068E0B9FB49E06A79
:1019F0000968C96A884200D30126201DFFF79CFBB5
:101A000094F82C1001208840F54909680843F449EE
:101A10000860E16A01EB8101F24A02EB8100211DBD
:101A2000FFF764FB04E004F11801EF48FFF75EFBE9
:101A30003846FEF7D2FB3046BDE8F08110B50446CB
:101A4000206B00F04DFD204600F04AFD10BD70B542
:101A500023E0FFF7E3FDE548006808B9012000E056
:101A600000200546FFF735FDBDB900F0A5FDDF48B4
:101A7000C068C468201DFFF75FFBDD480068401E9A
:101A8000DB490860DB480068401EDA49086000F066
:101A9000A0FD2046FFF7D2FF00BFD648006800280F
:101AA000D7D170BD00BFFFF7D2FFCE480068012834
:101AB000F9D900F077FDF6E71FB5002000900190FE
:101AC000029003468022CCA10390CD48FFF7BAFBD9
:101AD0000446012C0CD1FEF779FBA01EC949086011
:101AE0000120C94908600020C849086000F044FD91
:101AF0001FBD10B5FEF76AFB0020C349086000F067
:101B000050FD10BDC149086870470021BF4A1068E8
:101B10007047B748006870470246002101E0521C38
:101B2000491C1078A528FAD0890888B270472DE999
:101B3000F04706460C4690460025206800284AD00B
:101B4000204641684968416000F1080142688A42C4
:101B500002D14168496841604168D1F80C9000BFEA
:101B6000204641684968416000F1080142688A42A4
:101B700002D14168496841604168CF6806EB451071
:101B8000076007F1340006EB45114860786C06EBFE
:101B90004511886006EB451080F80C80F86A06EB6A
:101BA00045110861B8F1030F05D1B86A18B10220D8
:101BB00006EB45110873002006EB4511486106EB62
:101BC00045118861386BFFF7A7FF06EB4511888345
:101BD0006D1C4F45C4D12846BDE8F0872DE9F04182
:101BE00005468846164600240527FFF717FD80485E
:101BF000006880452FD300BF7F1E07EB8702794B1B
:101C000003EB820105EB44100122FFF790FF04442F
:101C1000002FF1D105EB441002227D490968FFF73E
:101C200086FF044405EB441002227A490968FFF755
:101C30007EFF044405EB441004226C49FFF777FF54
:101C4000044405EB441003227349FFF770FF04447A
:101C50000EB100203060FFF73CFC2046BDE8F0816B
:101C600070B506460C465D48016818313046FFF7EE
:101C700049FA5A480068001DFFF75EFA50B9574804
:101C8000006890F82C10012088405549096881436C
:101C900053480160601C06D150480168091D5E4828
:101CA000FFF724FA05E05948006805192846FFF7B0
:101CB00096FC70BD2DE9F04107460D46144645F0EF
:101CC000004046490968886144480168183138462F
:101CD000FFF70CFA41480068001DFFF72DFA50B9D4
:101CE0003E48006890F82C10012088403C49096863
:101CF00081433B480160601C06D138480168091DDA
:101D00004548FFF7F3F905E04048006806193046FA
:101D1000FFF765FCBDE8F08170B50646F068C46861
:101D200004F11800FFF708FA2B480068A8B9201D35
:101D3000FFF702FA94F82C1001208840284909681E
:101D4000084327490860E16A01EB8101254A02EB5B
:101D50008100211DFFF7CAF904E004F118012248AF
:101D6000FFF7C4F91D49E06A0968C96A884204D9C5
:101D7000012501202949086000E00025284670BDA2
:101D80002DE9F04105460F4647F000402860EC6819
:101D90002846FFF7D1F9201DFFF7CEF994F82C1053
:101DA000012088400E49096808430D490860E16A2E
:101DB00001EB81010B4A02EB8100211DFFF796F92F
:101DC0000649E06A0968C96A884229D901260120C2
:101DD0001249086025E0000064000020380000205F
:101DE00048000020900000201C010020300100204D
:101DF000400000203C00002049444C450000000009
:101E0000A51A0008600000204C00002044000020BB
:101E1000680000206C0000204401002054000020D5
:101E200000263046BDE8F081F74909680160F749AE
:101E300009684160704770B504460D4600F0BCFB70
:101E4000F24802682868401C01D1002619E0EE49DA
:101E500020680968884204D06068904201D8012651
:101E60000FE06068101A2968884209D22868616802
:101E7000511A401A28602046FFF7D6FF002600E0DE
:101E8000012600F0A6FB304670BD0120E049086045
:101E90007047014611B10A46906C00E0002070477F
:101EA00008B102469164704770B505460E4631464A
:101EB000284600F05CFD284600F052FD044602E092
:101EC00020202855641C0F2CFAD3002028552819EF
:101ED00070BD7FB5054600202870CE48006803908D
:101EE000CC490968480100F09EFA0446002C49D00C
:101EF000002220460399FFF771FE03900020029014
:101F000039E0029804EB4010007B012806D002283B
:101F100006D0032806D0042808D105E0522607E0A1
:101F2000422605E0532603E0442601E0002600BFD8
:101F300000BF029804EB401041682846FFF7B4FF49
:101F40000546029804EB40108068029904EB4111A9
:101F5000898BCDE90010029804EB40103246AEA107
:101F60000369284600F044FD284600F0F9FC0544CA
:101F70000298401C0290DDE902018842C1D320464C
:101F800000F0AEFA7FBDA84909688869A6490968CA
:101F9000C96AC1F10501A44A1268916170472DE92F
:101FA000F04106460C4600F007FB9F480068C06CF5
:101FB00038BB01209C49096881F850000CB39A484D
:101FC0000068001DFFF7B8F850B99748006890F80E
:101FD0002C1001208840954909688143934801608D
:101FE000601C06D190480168091D9148FFF77EF8F2
:101FF00005E08648006807193846FFF7F0FA00F058
:10200000D1FA00F0E6FA00F0D7FA87480068C56C0C
:1020100065B126B1002084490968C86406E0824998
:10202000096801F14C00C96C491E016000207E491D
:10203000096881F8500000F0CCFA2846BDE8F0812C
:102040002DE9F0470746884615461C4600F0B4FACD
:102050007548006890F8500002282FD0724909682E
:1020600001F14C00C96CB943016001206E49096857
:1020700081F8500014B36C480068001DFFF75CF84D
:1020800050B96948006890F82C10012088406749D1
:102090000968814365480160601C06D16248016897
:1020A000091D6348FFF722F806E05848006800EB76
:1020B00004094846FFF793FA00F074FA00F089FA31
:1020C00000F07AFA1DB158480068C06C2860564884
:1020D000006890F85000012801D1002608E052491C
:1020E000096801F14C00C96C21EA08010160012670
:1020F00000204D49096881F8500000F06AFA304626
:10210000BDE8F0872DE9F04781460D4616461F468B
:102110004FF0010A4C4600F04FFA0FB1E06C386006
:1021200094F85080022084F85000052E17D2DFE882
:1021300006F01503070B0D00E06C2843E0640EE089
:10214000E06C401CE0640AE0E56408E0B8F1020FCE
:1021500001D0E56401E04FF0000A00E000BF00BFDD
:10216000B8F1010F1CD1201DFEF7E6FF94F82C10EA
:10217000012088402D49096808432C490860E16A1C
:1021800001EB81012B4A02EB8100211DFEF7AEFF1E
:102190002549E06A0968C96A884201D900F002FA53
:1021A00000F017FA5046BDE8F0872DE9F84F814658
:1021B0000D4616461F46DDF828A04FF0010B4C4691
:1021C000FEF704F800900FB1E06C386094F850808E
:1021D000022084F85000052E2FD2DFE806F02D03F0
:1021E000070B0D00E06C2843E06426E0E06C401C27
:1021F000E06422E0E56420E0B8F1020F01D0E5647C
:1022000001E04FF0000B18E05800002044000020CF
:102210005400002040000020092563092575092588
:10222000750925750D0A00003800002048000020BF
:10223000440100209000002000BF00BFB8F1010F52
:1022400029D143480068A8B9201DFEF775FF94F80E
:102250002C10012088403F49096808433D49086027
:10226000E16A01EB81013C4A02EB8100211DFEF78E
:102270003DFF04E004F118013848FEF737FF384904
:10228000E06A0968C96A884205D9BAF1000F02D02C
:102290000120CAF800000098FDF79FFF5846BDE8EE
:1022A000F88F2DE9F04105460E462C46FDF78EFFCE
:1022B000804694F85070022084F85000E06C401C76
:1022C000E064012F26D122480068A8B9201DFEF73E
:1022D00033FF94F82C10012088401E4909680843F8
:1022E0001C490860E16A01EB81011B4A02EB810095
:1022F000211DFEF7FBFE04E004F118011748FEF76C
:10230000F5FE1749E06A0968C96A884202D90EB128
:10231000012030604046FDF760FFBDE8F08170B5F8
:102320000446264616B90E48006800E030460646C8
:1023300000F042F996F85000022804D1002086F8F7
:102340005000012500E0002500F043F9284670BD4B
:102350006400002048000020900000201C010020A4
:102360003800002010B50146714800E0006803689D
:102370008B42FBD30246436813448B4204D143682B
:102380004C682344436001460A464B681344046882
:10239000A34211D1674C03682468A34208D04B685C
:1023A0000468646823444B6003681B680B6005E0A5
:1023B000604B1B680B6001E003680B60884200D033
:1023C000016010BD30B54FF488435B4810F0070F33
:1023D00005D0C01D20F00700574C041B1B1B0246F4
:1023E000534C22600024524D6C60D018083820F005
:1023F0000700504C206000244E4D2D686C604D4D00
:102400002D682C601146441A4C604A4C24680C60BC
:102410004A4D4C682C604A4D4C682C604FF000448B
:10242000484D2C6030BD2DE9F04105464FF00008C5
:10243000FFF7F4F83F48006808B9FFF7C3FF4148C9
:102440000068054247D145B1083515F0070F04D0A3
:1024500005F00700C0F108000544002D3BD03848C6
:102460000068854237D8324E3046046801E026467F
:1024700024686068A84202D220680028F7D12D485D
:102480000068844227D0306800F108082068306076
:102490006068401B102807D967196068401B786086
:1024A00065603846FFF75EFF254960680968081ACD
:1024B000234908600846006820490968884203D219
:1024C0001F4800681D4908601E4960680968084384
:1024D000606000202060FEF7FCFF4046BDE8F08110
:1024E00070B506463546D6B1083D2C46154960689C
:1024F0000968084213D0206888B9124960680968E1
:1025000088436060FFF78AF80D49606809680844ED
:102510000B4908602046FFF725FFFEF7DAFF70BD84
:10252000074800687047054800687047704700001A
:10253000800000207000002058010020780000205A
:10254000740000207C000020FDF740FE00BFFEE785
:10255000001F4FF080730360001F0160001F2B4BB2
:102560000360143802602038704729484FF0E0219A
:10257000486107200861704710B52648006840F49C
:102580007F00244908600846006840F07F400860EA
:10259000FFF7EBFF002020490860FDF7E5FD002074
:1025A00010BD70474FF080501A491C390860BFF3C6
:1025B0004F8FBFF36F8F704710B5FDF707FE1648BA
:1025C0000068401C14490860BFF34F8FBFF36F8F42
:1025D00010BD10B510480068401E0F49086008463D
:1025E000006810B90020FDF7F8FD10BD10B5FDF72B
:1025F000EDFDFEF7F5FE20B14FF0805005491C3986
:1026000008600020FDF7E9FD10BD00004925000825
:102610003F19010020ED00E08800002008B50121ED
:102620000820FEF765FA01218020FEF761FA0120FB
:10263000ADF8000010208DF8030003208DF8020093
:1026400069460948FDF79EFF4FF4C070ADF80000E1
:1026500010208DF8030003208DF80200694603481E
:10266000FDF790FF08BD0000000C0140001C014078
:1026700008B501210420FEF73BFA01211020FEF7E6
:1026800037FA0120ADF8000048208DF803006946B4
:102690002348FDF777FF4FF40050ADF800004820C5
:1026A0008DF8030069461F48FDF76CFF08BD10B5A3
:1026B00001211B48FDF7F7FF012812D16420FEF726
:1026C000F2FF01211648FDF7EEFF012809D100BFF6
:1026D00001211348FDF7E7FF0028F9D06420FEF739
:1026E000E2FF10BD10B54FF400510E48FDF7DBFFBF
:1026F000012814D16420FEF7D6FF4FF40051094899
:10270000FDF7D1FF01280AD100BF4FF40051054861
:10271000FDF7C9FF0028F8D06420FEF7C4FF10BD04
:10272000000801400010014010B586B004460121A8
:102730000420FEF7DDF901218803FEF7D9F94FF4F3
:102740000070ADF8140018208DF8170003208DF8E4
:10275000160005A91848FDF715FF4FF48060ADF885
:10276000140004208DF8170005A91348FDF70AFF8F
:1027700001940020ADF80800ADF80A00ADF8100093
:10278000ADF80C000C20ADF80E0001A90B48FEF7C7
:102790005AFA06B010BD70B504460D46E1B20748BE
:1027A000FEF74AFB00BF80210448FEF7B3FB002878
:1027B000F9D0204670BD00000008014000380140FB
:1027C0000DE001211748FDF78AFFC820FEF76BFFD7
:1027D00001211448FDF781FFC820FEF764FFF0E7F0
:1027E0000DE080211048FDF77AFFC820FEF75BFF5F
:1027F00080210D48FDF771FFC820FEF754FFF0E778
:102800000FE04FF480710848FDF769FFC820FEF71C
:102810004AFF4FF480710448FDF75FFFC820FEF7C0
:1028200042FFEEE7000C0140001C014010B5ADF581
:10283000006D40F2FF7407E055200DF80400012000
:10284000FEF731FF601E04B2002CF5DA0DF5006DC5
:1028500010BDFEB01CE0FFF72AFF00280DD011A02C
:1028600000F0B6F818A000F0B3F801A8FFF731FBAC
:1028700001A921A000F0ACF807E0FFF733FF20B179
:102880001FA000F0A5F8FFF7D1FF1420FEF70BFF03
:10289000E1E770B505460C46214621A000F098F806
:1028A00070BD0000200D0A20B4F2D3A14672656508
:1028B00052544F53B5C4C8CECEF1D6B4D0D0B5C45F
:1028C000C7E9BFF6200D0A00200D0A20C8CECEF1C0
:1028D000C3FB2020C8CECEF1D7B4CCAC20D3C5CF1B
:1028E000C8BCB620CAA3D3E0D5BB20C8CECEF1D099
:1028F000F2BAC5200D0A000025730D0A0000000081
:102900000D0A20B0B4CFC2B0B4BCFC32A3ACC4A397
:10291000C4E2C8CECEF1D5BBD2E7B3F6200D0A0093
:102920000D0A20C8CECEF13A257320B7A2CFD6D556
:10293000BBD2E7B3F6200D0A00000000D2B201E0DE
:1029400000F8012B491EFBD270470022F6E710B5B4
:1029500013460A4604461946FFF7F0FF204610BD0D
:10296000421C10F8011B0029FBD1801A7047034656
:1029700011F8012B00F8012B002AF9D118467047F5
:1029800030B50B46014600202022012409E021FA3F
:1029900002F59D4205D303FA02F5491B04FA02F53C
:1029A0002844151EA2F10102F1DC30BD064C074D92
:1029B00006E0E06840F0010394E80700984710340F
:1029C000AC42F6D3FDF7B8FBFC2B00081C2C00082A
:1029D0000FB4054B10B503A9044A029800F02CF877
:1029E00010BC5DF814FB0000972700088C00002045
:1029F0000FB4084B10B504A902AA039800F01CF804
:102A0000044602A9002000F0F3F8204610BC5DF84F
:102A100014FB0000F12B000802E008C8121F08C1D7
:102A2000002AFAD170477047002001E001C1121F4F
:102A3000002AFBD1704700002DE9FF4F8BB09A466A
:102A40000F4605460026C9E0252837D100246D1C15
:102A50006649A04601222B78203B02FA03F0084287
:102A600002D004436D1CF6E728782E2817D115F8FC
:102A7000010F44F004042A280ED06FF02F022878AA
:102A8000A0F1300109290AD808EB880102EB4101C5
:102A900000EB01086D1CF2E757F8048B6D1C2878D9
:102AA00069283FD006DC002871D063280CD0642848
:102AB00004D137E0732811D075284ED052460D99B5
:102AC000904706F1010688E017F8040B8DF8000026
:102AD00000208DF80100E946012003E057F8049B2F
:102AE0004FF0FF3061074FF0000401D40AE0641C8E
:102AF00044450DDA8442FADB19F804100029F6D1B6
:102B000006E0641C8442FCDB19F804100029F8D1AB
:102B1000264404E019F8010B52460D999047641EB3
:102B2000F8D25AE001CF4FF00A0B002804DAC0F1C6
:102B300000004FF02D0102E0210504D52B218DF876
:102B40002410012103E0E10705D02021F7E70DF172
:102B5000200908910CE00021F9E701CF4FF00A0BA2
:102B6000F9E75946FFF70CFF01F1300209F8012D92
:102B70000028F6D1ADEB090000F1200B600701D46D
:102B80004FF00108D84503DDA8EB0B0001E029E078
:102B900000208046002406E009A85246005D0D99F9
:102BA0009047761C641C08988442F5DB04E03020D2
:102BB00052460D999047761CB8F10001A8F1010822
:102BC000F5DC05E019F8010B52460D999047761C8B
:102BD000BBF10001ABF1010BF4DC6D1C287800287F
:102BE0007FF432AF0FB03046BDE8F08F0928010006
:102BF0000A68531C0B601070704700001C2C000802
:102C00000000002090000000182A0008AC2C0008EA
:102C100090000020C8480000282A000800A24A04AA
:102C2000000000000000000001020304060708097C
:102C30000000000001020304010203040607080962
:102C40000204060800000000000000000000000070
:102C50000000000000000000000000000000000074
:102C60000000000000000000000000000000000064
:102C70000000000000000000000000000000000054
:102C80000000000000000000000000000000000044
:102C90000000000000000000000000000000000034
:0C2CA00000000000AAAAAAAA0000000080
:0400000508000131BD
:00000001FF
