:020000040800F2
:10000000904B00207102000891040008930400083E
:10001000970400089B0400089F04000800000000EB
:10002000000000000000000000000000CD010008FA
:10003000A3040008000000001102000835170008A2
:100040008B0200088B0200088B0200088B0200085C
:100050008B0200088B0200088B0200088B0200084C
:100060008B0200088B0200088B0200088B0200083C
:100070008B0200088B0200088B0200088B0200082C
:100080008B0200088B0200088B0200088B0200081C
:100090008B0200088B0200088B0200088B0200080C
:1000A0008B0200088B0200088B0200088B020008FC
:1000B0008B0200088B0200088B0200088B020008EC
:1000C0008B0200088B0200088B0200088B020008DC
:1000D0008B0200088B0200088B0200088B020008CC
:1000E0008B0200088B0200088B0200088B020008BC
:1000F0008B0200088B0200088B0200088B020008AC
:100100008B0200088B0200088B0200088B0200089B
:100110008B0200088B0200088B0200088B0200088B
:100120008B0200088B0200088B0200088B0200087B
:1001300000F002F800F03AF80AA090E8000C8244BF
:100140008344AAF10107DA4501D100F02FF8AFF29C
:10015000090EBAE80F0013F0010F18BFFB1A43F0A5
:10016000010318477416000094160000103A24BFCB
:1001700078C878C1FAD8520724BF30C830C144BF0C
:1001800004680C607047000000230024002500264E
:10019000103A28BF78C1FBD8520728BF30C148BFEA
:1001A0000B6070471FB51FBD10B510BD01F0DDFA23
:1001B0001146FFF7F7FF00F069F901F0FBFA03B40D
:1001C000FFF7F2FF03BC01F0FFFA0000204B1968B3
:1001D0000868B0E8F00F80F30988BFF36F8F4FF025
:1001E000000080F311884EF00D0E704700000000F3
:1001F00006480068006880F3088862B661B6BFF3FD
:100200004F8FBFF36F8F00DF00BF00BF08ED00E02E
:10021000EFF30980BFF36F8F0D4B1A6820E9F00FE1
:10022000106008B54FF0BF0080F3118800F0CAFCE1
:100230004FF0000080F31188BDE808401968086895
:10024000B0E8F00F80F30988BFF36F8F704700BFED
:1002500014000020EFF311804FF0BF0181F31188EB
:10026000704780F311887047EFF3058070470000F6
:100270000948804709480047FEE7FEE7FEE7FEE73A
:10028000FEE7FEE7FEE7FEE7FEE7FEE70448054976
:10029000054A064B704700008D0300083101000835
:1002A00090450020904B0020904700209047002070
:1002B0000CB50020019000906B48006840F480303D
:1002C0006949086000BF6848006800F40030009089
:1002D0000198401C0190009818B90198B0F5A06FE2
:1002E000F1D16148006810F4003F02D00120009075
:1002F00001E0002000900098012842D15B4800688E
:1003000040F01000594908600846006820F00300DA
:1003100008600846006840F00200086052484068E3
:10032000514948600846406848600846406840F4C3
:10033000806048600846406820F47C1048600846A9
:10034000406840F4E81048600846006840F080705B
:10035000086000BF4448006810F0007FFAD04248AF
:10036000406820F00300404948600846406840F07B
:100370000200486000BF3C48406800F00C000828BC
:10038000F9D10CBD10B5FFF793FF10BD10B536487D
:10039000006840F00100344908600846406834496C
:1003A00008403149486008460068324908402E49F3
:1003B00008600846006820F480200860084640680D
:1003C00020F4FE0048604FF41F008860FFF7DAFF5A
:1003D0004FF000602849086010BD10B500210020D2
:1003E0000022214B5B6803F00C0121B1042906D0E7
:1003F000082928D107E0214B214C236027E01F4B1F
:100400001F4C236023E0184B5B6803F47010164BFD
:100410005B6803F48032022303EB904022B9194B4E
:100420004343174C23600DE00F4B5B6813F4003F10
:1004300004D0144B4343124C236003E00F4B43435F
:100440000F4C236003E00D4B0D4C236000BF00BF39
:10045000054B5B68C3F303130B4CE15C084B1B6853
:10046000CB40074C236010BD00100240002002402A
:100470000000FFF8FFFFF6FE08ED00E000127A0032
:100480000000002000093D0004000020002070470B
:10049000704700BFFEE700BFFEE700BFFEE700BFFA
:1004A000FEE7704700F1080141604FF0FF318160C5
:1004B00000F10801C1600161002101607047002165
:1004C0000161704742684A6093688B609368596025
:1004D0009160086103685B1C0360704710B50246B9
:1004E0000B685C1C01D1106907E002F1080000E014
:1004F0004068446824689C42FAD944684C604C685F
:10050000A160886041600A611468641C146010BDB9
:1005100001460A69D1E901309860D1E901035860C8
:100520005068884201D188685060002008611068D6
:10053000401E10601068704710B5002407E004EBFF
:100540008401F74A02EB8100FFF7ACFF641C052C25
:10055000F5D3F448FFF7A6FFF348FFF7A3FFF348EE
:10056000FFF7A0FFF248FFF79DFFF248FFF79AFF61
:10057000EC48F1490860EC48F049086010BD2DE9ED
:10058000F04704460F4616469946DDF820800025C0
:1005900007E0795D04F134004155785D00B902E06F
:1005A0006D1C102DF5D300BF002143200155052EF1
:1005B00000D30426E662201DFFF781FF04F1180036
:1005C000FFF77DFF2461C6F10500A0616462002091
:1005D000606484F84800BDE8F0872DE9F0410646E4
:1005E0000F461FB9B00000F0C2FF00E038460546D4
:1005F00055B14C2000F0BBFF04460CB1256304E06C
:10060000284601F011F800E000242046BDE8F08102
:100610002DE9FF4F81B0804615469946DDE90E7AF7
:1006200028461099FFF7D9FF0446002C4FD0681ECA
:10063000216B01EB800B2BF0070B00953A4620460F
:10064000119B0299FFF79BFF4A464146584601F02D
:1006500023F82060BAF1000F01D0CAF8004001F081
:100660004FF8B7480068401CB5490860B5480068B5
:1006700040B9B44804600846006801280CD1FFF76F
:100680005BFF09E0B048006830B9AE480068C06A56
:10069000B84201D8AB480460AC480068401CAB4984
:1006A000086094F82C1001208840A9490968084383
:1006B000A7490860E16A01EB8101994A02EB8100D8
:1006C000211DFFF7FFFE012601F027F801E04FF0A2
:1006D000FF36012E09D19C48006830B19948006866
:1006E000C06AB84201D201F001F8304605B0BDE859
:1006F000F08F91490968096809B9012100E00021DA
:1007000021B14FF0FF31934A116006E08A49096830
:10071000C968C8688F4A41681160704770B505465E
:1007200000F0EEFF15B98748006800E0284604464F
:10073000201DFFF7EDFE78B9E06A00EB80007849F4
:1007400051F8200040B994F82C10012088408049CD
:10075000096881437E480160A06A18B104F118005D
:10076000FFF7D6FE211D7248FFF7ACFE7A480068FD
:10077000401C7949086075480068401C734908604E
:1007800000F0CBFF7048006860B16E48006884429A
:1007900002D100F0ABFF05E000F0B2FFFFF7A9FFC8
:1007A00000F0BBFF70BD2DE9F04100276B480068E9
:1007B000002865D16A480068401C694908600846FD
:1007C00006688EB95C48D0F800805C4800685A49D9
:1007D00008605A48C0F8008062480068401C6149BF
:1007E0000860FFF786FF00BF5A48006886423BD387
:1007F00000BF51480068006808B9012000E00020EF
:1008000020B14FF0FF30534908602CE04A4800689F
:10081000C068C4686568AE4202D24E48056022E0F6
:10082000201DFFF775FEA06A18B104F11800FFF74C
:100830006FFE94F82C100120884045490968084350
:1008400043490860E16A01EB8101354A02EB81000E
:10085000211DFFF737FE3B49E06A0968C96A8842F3
:10086000C7D30127C5E700BF36480068C06A00EB60
:1008700080002B4951F82000012806D9012704E007
:1008800039480068401C384908603848006800B1A1
:1008900001273846BDE8F08170B5002500F030FF33
:1008A0002E480068401E2D49086008460068002850
:1008B00074D123480068002870D024E01B48C06829
:1008C000C46804F11800FFF723FE201DFFF720FE87
:1008D00094F82C10012088401D49096808431C49E0
:1008E0000860E16A01EB81010D4A02EB8100211DE4
:1008F000FFF7E8FD1349E06A0968C96A884202D334
:1009000001201A4908600948006808B9012000E080
:1009100000200028D2D01448006800B133E036E04F
:1009200068000020CC000020E0000020F40000203F
:10093000080100201C010020440000204800002085
:100940001C00002014000020280000203800002097
:10095000240000203C00002018000020400000205F
:1009600020000020340000202C0000203000002057
:10097000FFF719FF10B10120FE490860FE4800682A
:10098000401EFD490860FC4800680028F0D1F94885
:100990000068012802D1012500F0A8FE00F0BDFE8C
:1009A000284670BD10B50446F44800684460F44819
:1009B0000068844207D2F1480168091DF1480068C7
:1009C000FFF78CFD0CE0ED480168091DEE4800685A
:1009D000FFF784FDED480068844201D2EB480460D3
:1009E00010BDEB480068401CE949086070472DE9DC
:1009F000F047044688464FF00009FFF7F2FFE04851
:100A00000768206800EB08052068B84207D920680D
:100A1000A8420BD9BD4209D94FF0010906E0206870
:100A2000A84201D8BD4201D94FF001092560B9F1B2
:100A3000000F13D0D1480068001DFFF769FD50B9C1
:100A4000CE48006890F82C1001208840D1490968F0
:100A50008143D04801602846FFF7A4FFFFF71CFF41
:100A600006460EB900F042FEBDE8F08770B50446B8
:100A70000026DCB1FFF7B5FFC14800680519BF4883
:100A80000068001DFFF744FD50B9BC48006890F8AD
:100A90002C1001208840BF4909688143BD4801608E
:100AA0002846FFF77FFFFFF7F7FE06460EB900F076
:100AB0001DFE70BD70B5044600F022FE14B9AF48AB
:100AC000006800E020460646F56A00F026FE28464B
:100AD00070BD2DE9F0410446FFF7BCFB064614B992
:100AE000A648006800E020460746FD6A3046FFF74A
:100AF000B8FB2846BDE8F0812DE9F04780460D4659
:100B00004FF00009052D00D3042500F0F9FDB8F1E0
:100B1000000F02D19948006800E040460446E66AAA
:100B2000AE424BD0B5420BD99448006884420DD0F8
:100B300092480068C06AA84208D84FF0010905E051
:100B40008E480068844201D14FF00109E76AE562EE
:100B5000A06910F0004F02D1C5F10500A06107EBBC
:100B600087018D4A02EB81016069884201D1012031
:100B700000E00020E0B1201DFFF7CAFC30B90120E1
:100B8000B8408449096881438248016094F82C1078
:100B9000012088407F49096808437E490860E16A6E
:100BA00001EB81017C4A02EB8100211DFFF78AFCE9
:100BB000B9F1010F01D100F099FD00BF00F0ADFDCA
:100BC000BDE8F0877248006818B1012069490860E3
:100BD0001DE00020674908606E480068B0FA80F0A8
:100BE000C0F11F0101EB81026B4B03EB82004268F5
:100BF0005268426000F108024368934202D14268A1
:100C0000526842604268D2685C4B1A6000BF70470D
:100C100070B5054600F074FD15B95848006800E04D
:100C200028460446201DFFF773FC78B9E06A00EB04
:100C30008000594951F8200040B994F82C10012047
:100C4000884054490968814352480160A06A18B13C
:100C500004F11800FFF75CFC211D5048FFF732FC3F
:100C600000F05BFD45480068844212D14C480068A2
:100C700010B100F03BFD15E048480068494909689B
:100C8000884203D100203D4908600BE0FFF79AFF3E
:100C900008E04348006828B100F032FDFFF729FD65
:100CA00000F03BFD70BD10B5014600200A463B4CEC
:100CB0005369A34201D1012300E0002373B13A4CF0
:100CC000936AA34201D1012300E0002333B9936A60
:100CD0000BB9012300E0002303B1012010BD70B562
:100CE00005462C464CB325480068844225D000F0C8
:100CF00007FD2046FFF7D7FF01281CD1201DFFF775
:100D000007FC94F82C100120884022490968084308
:100D100020490860E16A01EB81011F4A02EB810072
:100D2000211DFFF7CFFB1549E06A0968C96A8842AF
:100D300001D300F0DBFC00F0F0FC70BD2DE9F041C8
:100D4000054600262C46FFF785FA07462046FFF7A2
:100D5000AAFF012842D10E48006850B90749E06A4D
:100D60000968C96A884200D30126201DFFF7D0FB1D
:100D70001CE02EE0300000202C0000201400002099
:100D80002000002048000020440000203C000020FB
:100D90004000002024000020680000201C010020EA
:100DA000280000201C000020F400002094F82C10E3
:100DB00001208840FE4909680843FD490860E16A4E
:100DC00001EB8101FB4A02EB8100211DFFF77AFB59
:100DD00004E004F11801F848FFF774FB3846FFF708
:100DE00040FA3046BDE8F08110B50446206B00F0B3
:100DF0001BFC204600F018FC10BD70B523E0FFF787
:100E0000F0FDEE48006808B9012000E0002005462A
:100E1000FFF742FDBDB900F073FCE848C068C46844
:100E2000201DFFF775FBE6480068401EE449086096
:100E3000E4480068401EE349086000F06EFC20466C
:100E4000FFF7D2FF00BFDF4800680028D7D170BD90
:100E500000BFFFF7D2FFD74800680128F9D900F09A
:100E600045FCF6E71FB50020009001900290034674
:100E70008022D5A10390D648FFF7CAFB0446012C77
:100E80000CD1FFF7E7F9A01ED24908600120D24932
:100E900008600020D149086000F012FC1FBD10B5A9
:100EA000FFF7D8F90020CC49086000F01EFC10BD07
:100EB000CA49086870470021C84A10687047C0488E
:100EC0000068704770B506460C46C5480168183181
:100ED0003046FFF703FBC2480068001DFFF718FB10
:100EE00050B9BF48006890F82C1001208840B049E4
:100EF00009688143AE480160601C06D1B8480168AA
:100F0000091DB848FFF7DEFA05E0B4480068051986
:100F10002846FFF747FD70BD2DE9F04107460D4615
:100F2000144645F00040AE4909688861AC48016844
:100F300018313846FFF7C6FAA9480068001DFFF7C8
:100F4000E7FA50B9A648006890F82C1001208840B4
:100F500097490968814396480160601C06D1A04802
:100F60000168091D9F48FFF7ADFA05E09B4800683E
:100F700006193046FFF716FDBDE8F08170B506464C
:100F8000F068C46804F11800FFF7C2FA96480068D8
:100F9000A8B9201DFFF7BCFA94F82C100120884056
:100FA00083490968084382490860E16A01EB8101CD
:100FB000804A02EB8100211DFFF784FA04E004F16E
:100FC00018017D48FFF77EFA8549E06A0968C96A19
:100FD000884204D9012501208449086000E00025E9
:100FE000284670BD2DE9F04105460F4647F0004008
:100FF0002860EC682846FFF78BFA201DFFF788FA77
:1010000094F82C1001208840694909680843684910
:101010000860E16A01EB8101664A02EB8100211D53
:10102000FFF750FA6E49E06A0968C96A884204D934
:10103000012601206D49086000E000263046BDE829
:10104000F0816B4909680160644909684160704733
:1010500070B504460D4600F053FB604802682868EE
:10106000401C01D1002619E06149206809688842C6
:1010700004D06068904201D801260FE06068101A21
:101080002968884209D228686168511A401A286084
:101090002046FFF7D6FF002600E0012600F03DFBCA
:1010A000304670BD01205149086070474C490968BD
:1010B00088694B490968C96AC1F10501484A126843
:1010C000916170472DE9F04106460C4600F018FB8F
:1010D00043480068406C38BB01204149096881F8E9
:1010E00048000CB33E480068001DFFF711FA50B9E4
:1010F0003B48006890F82C10012088402C49096872
:1011000081432B480160601C06D135480168091DE8
:101110003448FFF7D7F905E030480068071938462A
:10112000FFF740FC00F0E2FA00F0F7FA00F0E8FA0E
:101130002B480068456C65B126B100202849096834
:10114000486406E02649096801F14400496C491EDB
:10115000016000202249096881F8480000F0DDFAAA
:101160002846BDE8F0812DE9F04707468846154638
:101170001C4600F0C5FA1A48006890F8480002289A
:1011800054D01749096801F14400496CB943016022
:1011900001201349096881F8480044B110480068EB
:1011A000001DFFF7B5F928BB0D48006823E03DE0BE
:1011B0002400002068000020F40000200801002026
:1011C0001C0000201800002049444C45000000008D
:1011D000510E00083C0000202800002020000020C4
:1011E000140000201C0100204000002030000020DE
:1011F0003400002008E090F82C1001208840A44919
:1012000009688143A2480160601C06D1A1480168B9
:10121000091DA148FFF756F906E0A048006800EB59
:1012200004094846FFF7BEFB00F060FA00F075FACB
:1012300000F066FA1DB197480068406C2860954838
:10124000006890F84800012801D1002608E0914983
:10125000096801F14400496C21EA08010160012696
:1012600000208C49096881F8480000F056FA3046A1
:10127000BDE8F0872DE9F04781460D4616461F462A
:101280004FF0010A4C4600F03BFA0FB1606C386039
:1012900094F84880022084F84800052E17D2DFE831
:1012A00006F01503070B0D00606C284360640EE028
:1012B000606C401C60640AE0656408E0B8F1020FED
:1012C00001D0656401E04FF0000A00E000BF00BFFC
:1012D000B8F1010F1CD1201DFFF71AF994F82C105A
:1012E000012088406A490968084369490860E16A41
:1012F00001EB81016A4A02EB8100211DFFF7E2F850
:101300006449E06A0968C96A884201D900F0EEF9C7
:1013100000F003FA5046BDE8F0872DE9F84F81460A
:101320000D4616461F46DDF828A04FF0010B4C462F
:10133000FEF790FF00900FB1606C386094F8488021
:10134000022084F84800052E17D2DFE806F01503C6
:10135000070B0D00606C284360640EE0606C401C5D
:1013600060640AE0656408E0B8F1020F01D06564CA
:1013700001E04FF0000B00E000BF00BFB8F1010F2B
:1013800029D148480068A8B9201DFFF7C1F894F892
:101390002C10012088403E49096808433C490860F8
:1013A000E16A01EB81013E4A02EB8100211DFFF75A
:1013B00089F804E004F118013B48FFF783F8354948
:1013C000E06A0968C96A884205D9BAF1000F02D0FB
:1013D0000120CAF800000098FEF743FF5846BDE818
:1013E000F88F2DE9F04105460E462C46FEF732FFF8
:1013F000804694F84870022084F84800606C401CD5
:101400006064012F26D127480068A8B9201DFFF786
:101410007FF894F82C10012088401D490968084382
:101420001B490860E16A01EB81011D4A02EB810062
:10143000211DFFF747F804E004F118011A48FFF7EF
:1014400041F81449E06A0968C96A884202D90EB1B4
:10145000012030604046FEF704FFBDE8F08170B522
:101460000446264616B90B48006800E0304606469A
:1014700000F046F996F84800022804D1002086F8CA
:101480004800012500E0002500F047F9284670BD1E
:1014900024000020140000201C0100202000002057
:1014A0006800002040000020F400002010B5014634
:1014B000714800E0006803688B42FBD30246436832
:1014C00013448B4204D143684C6823444360014673
:1014D0000A464B6813440468A34211D1674C036861
:1014E0002468A34208D04B680468646823444B60B6
:1014F00003681B680B6005E0604B1B680B6001E034
:1015000003680B60884200D0016010BD30B54FF415
:1015100088435B4810F0070F05D0C01D20F007007E
:10152000574C041B1B1B0246534C22600024524D97
:101530006C60D018083820F00700504C2060002460
:101540004E4D2D686C604D4D2D682C601146441A2F
:101550004C604A4C24680C604A4D4C682C604A4DE3
:101560004C682C604FF00044484D2C6030BD2DE994
:10157000F04105464FF00008FFF733FA3F48006896
:1015800008B9FFF7C3FF41480068054247D145B19C
:10159000083515F0070F04D005F00700C0F108006A
:1015A0000544002D3BD038480068854237D8324E7C
:1015B0003046046801E0264624686068A84202D2EA
:1015C00020680028F7D12D480068844227D0306871
:1015D00000F10808206830606068401B102807D9B7
:1015E00067196068401B786065603846FFF75EFFEA
:1015F000254960680968081A234908600846006898
:1016000020490968884203D21F4800681D490860C4
:101610001E49606809680843606000202060FFF789
:101620003BF94046BDE8F08170B506463546D6B177
:10163000083D2C46154960680968084213D02068A7
:1016400088B912496068096888436060FFF7C9F982
:101650000D496068096808440B4908602046FFF797
:1016600025FFFFF719F970BD074800687047054866
:1016700000687047704700005C0000204C000020AC
:1016800030010020540000205000002058000020AD
:10169000FEF7E0FD00BFFEE7001F4FF08073036020
:1016A000001F0160001F2B4B0360143802602038BC
:1016B000704729484FF0E0214861072008617047D2
:1016C00010B52648006840F47F00244908600846A9
:1016D000006840F07F400860FFF7EBFF00202049E2
:1016E0000860FEF785FD002010BD70474FF0805068
:1016F0001A491C390860BFF34F8FBFF36F8F7047D3
:1017000010B5FEF7A7FD16480068401C1449086094
:10171000BFF34F8FBFF36F8F10BD10B51048006837
:10172000401E0F4908600846006810B90020FEF707
:1017300098FD10BD10B5FEF78DFDFFF734F820B110
:101740004FF0805005491C3908600020FEF789FDE4
:1017500010BD0000911600083F19010020ED00E0C7
:1017600064000020704770477047754600F028F805
:10177000AE4605006946534620F00700854618B07E
:1017800020B5FEF783FDBDE820404FF000064FF086
:1017900000074FF000084FF0000B21F00701AC46A6
:1017A000ACE8C009ACE8C009ACE8C009ACE8C009C5
:1017B0008D4670470446AFF300802046FEF7FFFCDD
:1017C000004870473045002001491820ABBEFEE7B5
:1017D0002600020070470000F817000800000020F3
:1017E000680000006C010008601800086800002014
:1017F000284B00008801000800A24A0400000000F5
:1018000000000000010203040607080900000000B0
:1018100000000000000000000000000000000000C8
:1018200000000000000000000000000000000000B8
:1018300000000000000000000000000000000000A8
:101840000000000000000000000000000000000098
:10185000000000000000000000000000AAAAAAAAE0
:0400000508000131BD
:00000001FF
