:020000040800F2
:1000000060490020E9010008AD1E0008AF1E00088D
:10001000D51E0008D91E0008DD1E000800000000E3
:100020000000000000000000000000004501000882
:10003000E11E000800000000890100088932000864
:10004000030200080302000803020008030200087C
:10005000030200080302000803020008030200086C
:10006000030200080302000803020008030200085C
:10007000030200080302000803020008030200084C
:10008000030200080302000803020008030200083C
:10009000030200080302000803020008030200082C
:1000A000030200080302000803020008030200081C
:1000B00003020008E31E0008030200080302000810
:1000C00003020008030200080302000803020008FC
:1000D00003020008030200080302000803020008EC
:1000E00003020008030200080302000803020008DC
:1000F00003020008030200080302000803020008CC
:1001000003020008030200080302000803020008BB
:1001100003020008030200080302000803020008AB
:10012000030200080302000803020008030200089B
:10013000DFF80CD003F00CFB00480047531E00080A
:1001400060490020204B19680868B0E8F00F80F380
:100150000988BFF36F8F4FF0000080F311884EF0D5
:100160000D0E70470000000006480068006880F32C
:10017000088862B661B6BFF34F8FBFF36F8F00DFA1
:1001800000BF00BF08ED00E0EFF30980BFF36F8F01
:100190000D4B1A6820E9F00F106008B54FF0BF0052
:1001A00080F3118802F071FA4FF0000080F311889B
:1001B000BDE8084019680868B0E8F00F80F30988C6
:1001C000BFF36F8F704700BF38000020EFF311803E
:1001D0004FF0BF0181F31188704780F31188704799
:1001E000EFF3058070470000064880470648004747
:1001F000FEE7FEE7FEE7FEE7FEE7FEE7FEE7FEE7D7
:10020000FEE7FEE7E9020008310100080CB5002016
:10021000019000906B48006840F4803069490860A4
:1002200000BF6848006800F4003000900198401C4E
:100230000190009818B90198B0F5A06FF1D161480C
:10024000006810F4003F02D00120009001E000207F
:1002500000900098012842D15B48006840F01000EF
:10026000594908600846006820F003000860084605
:10027000006840F0020008605248406851494860F8
:100280000846406848600846406840F4806048601E
:100290000846406820F47C1048600846406840F4F6
:1002A000E81048600846006840F08070086000BFB1
:1002B0004448006810F0007FFAD04248406820F0BF
:1002C0000300404948600846406840F0020048602A
:1002D00000BF3C48406800F00C000828F9D10CBD74
:1002E00010B5FFF793FF10BD10B53648006840F019
:1002F00001003449086008464068344908403149E3
:10030000486008460068324908402E49086008469F
:10031000006820F4802008600846406820F4FE0051
:1003200048604FF41F008860FFF7DAFF4FF000606D
:100330002849086010BD10B5002100200022214B83
:100340005B6803F00C0121B1042906D0082928D1EB
:1003500007E0214B214C236027E01F4B1F4C2360FB
:1003600023E0184B5B6803F47010164B5B6803F4D2
:100370008032022303EB904022B9194B4343174CC0
:1003800023600DE00F4B5B6813F4003F04D0144B67
:100390004343124C236003E00F4B43430F4C236055
:1003A00003E00D4B0D4C236000BF00BF054B5B68A5
:1003B000C3F303130B4CE15C084B1B68CB40074CA9
:1003C000236010BD00100240002002400000FFF832
:1003D000FFFFF6FE08ED00E000127A0000000020AA
:1003E00000093D000400002031490143314A1160F9
:1003F000704770B5002100230F22C4780CB32D4C38
:10040000246804F4E064C4F5E064210AC1F1040343
:10041000CA40447804FA03F1847814402143090166
:10042000254C0678A155047804F01F050124AC4042
:1004300005786D114FF0E02606EB8505C5F8004103
:1004400009E0047804F01F050124AC401B4D067838
:10045000761145F8264070BD194A0A400243154BF3
:100460001B1F1A60704739B1124A121D12680243ED
:10047000104B1B1D1A6006E00E4A121D12688243C3
:100480000C4B1B1D1A607047042808D14FF0E02167
:10049000096941F004014FF0E022116107E04FF0DB
:1004A000E021096921F004014FF0E0221161704759
:1004B0000000FA050CED00E000E400E080E100E05F
:1004C00080FFFF1F10B50446CA48844208D10121AD
:1004D000042000F027FB0021042000F023FB46E06D
:1004E000C548844208D10121082000F01BFB0021EF
:1004F000082000F017FB3AE0C048844208D10121EF
:10050000102000F00FFB0021102000F00BFB2EE06C
:10051000BB48844208D10121202000F003FB0021C8
:10052000202000F0FFFA22E0B648844208D10121E1
:10053000402000F0F7FA0021402000F0F3FA16E026
:10054000B148844208D10121802000F0EBFA00215B
:10055000802000F0E7FA0AE0AC48844207D101218C
:10056000801500F0DFFA0021A01500F0DBFA10BDC5
:1005700010B50121084600F0D5FA0021012000F055
:10058000D1FA10BD2DE9F0410246002500260020D9
:1005900000230024002791F803C00CF00F0591F808
:1005A00003C01CF0100F03D091F802C04CEA0505FF
:1005B00091F800C0BCF1000F31D0146800202BE08E
:1005C0004FF0010C0CFA00F3B1F800C00CEA03067E
:1005D0009E4220D183004FF00F0C0CFA03F7BC436E
:1005E00005FA03FC4CEA040491F803C0BCF1280F9F
:1005F00006D14FF0010C0CFA00FCC2F814C00AE05E
:1006000091F803C0BCF1480F05D14FF0010C0CFA72
:1006100000FCC2F810C0401C0828D1D31460B1F807
:1006200000C0BCF1FF0F34DD546800202EE000F163
:10063000080C4FF0010808FA0CF3B1F800C00CEAFE
:1006400003069E4221D183004FF00F0C0CFA03F7F2
:10065000BC4305FA03FC4CEA040491F803C0BCF166
:10066000280F05D100F1080C08FA0CF8C2F8148024
:1006700091F803C0BCF1480F07D100F1080C4FF00E
:10068000010808FA0CF8C2F81080401C0828CED3E4
:100690005460BDE8F0814FF6FF7101800221817046
:1006A0000421C17070470246002093680B4201D0BC
:1006B000012000E0002070470146886880B2704742
:1006C00002460020D3680B4201D0012000E0002048
:1006D00070470146C86880B2704701617047416148
:1006E00070470AB1016100E041617047C160704725
:1006F0004FF480320A43826181618261826982693A
:10070000704702460020424B18684FF6807318402D
:1007100040EA021008433E4B186070473D49C861EB
:100720007047F0B50A46002300240021002500F0A0
:100730000046B6F1004F02D1354EF16901E0344E6A
:100740007168C0F3034583B200F44016B6F5401F4C
:1007500008D121F070612E4E766826F070662C4F1D
:100760007E6012E000F48016B6F5801F06D10326E5
:1007700006FA05F4A14341F0706106E0460D36012A
:1007800003FA06F6B14341F0706122B1460D36011D
:1007900003FA06F6314300F00046B6F1004F02D1ED
:1007A0001B4EF16101E01A4E7160F0BD30B50022C0
:1007B0008B071C0F0F2303FA04F2154B08338C1020
:1007C00053F824309343124C08348D1044F82530EC
:1007D00023468C1053F824308C07240F00FA04F4BD
:1007E00023430B4C08348D1044F8253030BD0A49A2
:1007F0000860704700080140000C014000100140F3
:100800000014014000180140001C0140002001407C
:100810000000014000002042DC002042DD4800686A
:1008200040F00100DB49086008464068DA490840AA
:10083000D849486008460068D8490840D54908604A
:100840000846006820F4802008600846406820F4CC
:10085000FE0048604FF41F0088607047CD4909686A
:1008600021F48031CB4A11601146096821F48021BE
:100870001160B0F5803F03D0B0F5802F0ED106E0B7
:10088000C449096841F48031C24A116007E0C14996
:10089000096841F4A021BF4A116000E000BF00BF19
:1008A000704710B501460022002300204A11012A9A
:1008B00002D1B84C236806E0022A02D1B54C236A63
:1008C00001E0B44C636A01F01F02012494401C4211
:1008D00001D0012000E0002010BD38B500200090BC
:1008E0000024002500BF3120FFF7DBFF05460098FC
:1008F000401C00900098B0F5A06F01D0002DF2D000
:100900003120FFF7CEFF08B1012400E0002420468B
:1009100038BD014600209F4A106820F0F80040EAE8
:10092000C100106070479E49086070470246002071
:10093000984B586820F47C1042EA01031843954B09
:100940005860704796490866704701460020914AF2
:10095000506820F003000843506070478D4840689D
:1009600000F00C007047014600208A4A506820F0D1
:10097000F00008435060704701460020854A5068E7
:1009800020F4E06008435060704701460020814A2F
:10099000506820F4605040EAC1005060704729B1AF
:1009A0007C4A527A02437B4B5A7204E0794A527A6B
:1009B0008243784B5A7270477A4908607047014603
:1009C0000020744A506820F440400843506070474B
:1009D0000021754A11706F4A82F82010012802D058
:1009E000042808D103E001216F4A117004E00521B9
:1009F0006D4A117000E000BF00BF70476B4908608E
:100A000070476449096A0143624A11627047674945
:100A100044390860704730B50021002200240023CB
:100A20005C4D6D6805F00C0121B1042905D0082941
:100A300023D105E05E4D056022E05D4D05601FE0BD
:100A4000544D6D6805F47012524D6D6805F4803494
:100A5000022505EB92421CB9564D554305600BE04B
:100A60004C4D6D6815F4003F03D0524D5543056061
:100A700002E04F4D5543056002E04D4D056000BF5B
:100A800000BF444D6D6805F0F00109094A4D6B5CEB
:100A90000568DD4045603F4D6D6805F4E061090A79
:100AA000454D6B5C4568DD4085603A4D6D6805F4E9
:100AB0006051C90A404D6B5C4568DD40C560354DED
:100AC0006D6805F44041890B3C4D6B5CC568B5FB16
:100AD000F3F5056130BD29B12E4A526902432D4B11
:100AE0005A6104E02B4A526982432A4B5A6170478B
:100AF00029B1284A92690243264B9A6104E0254AAB
:100B000092698243234B9A61704729B1214AD26985
:100B10000243204BDA6104E01E4AD26982431D4B36
:100B2000DA61704729B11B4AD2680243194BDA6077
:100B300004E0184AD2688243164BDA60704729B144
:100B4000144A12690243134B1A6104E0114A1269F4
:100B50008243104B1A61704714494039086070474E
:100B60000F49C86470470B49C87170470948406A0B
:100B700040F0807007494862704701460020054AEE
:100B800092680A4201D0012000E00020704701492C
:100B900088727047001002400000FFF8FFFFF6FE69
:100BA00000004242D80042422010024080044242EB
:100BB00000127A0000093D001400002024000020EB
:100BC00010B50446FE48844208D10121C014FFF745
:100BD000A9FF0021E014FFF7A5FFC4E0B4F1804FA6
:100BE00008D101210846FFF7AAFF00210120FFF7E5
:100BF000A6FFB8E0F348844208D101210220FFF7A4
:100C00009EFF00210220FFF79AFFACE0EE488442ED
:100C100008D101210420FFF792FF00210420FFF7F3
:100C20008EFFA0E0E948844208D101210820FFF7A7
:100C300086FF00210820FFF782FF94E0E448844209
:100C400008D101211020FFF77AFF00211020FFF7C3
:100C500076FF88E0DF48844208D101212020FFF799
:100C60006EFF00212020FFF76AFF7CE0DA48844213
:100C700008D101214014FFF755FF00216014FFF750
:100C800051FF70E0D548844209D10121C804FFF723
:100C900049FF00214FF40020FFF744FF63E0D048F4
:100CA000844209D101210805FFF73CFF00214FF4E0
:100CB0008010FFF737FF56E0CA48844209D101216E
:100CC0004805FFF72FFF00214FF40010FFF72AFF20
:100CD00049E0C548844208D101214020FFF72FFF99
:100CE00000214020FFF72BFF3DE0C048844208D19F
:100CF00001218020FFF723FF00218020FFF71FFF45
:100D000031E0BB48844208D101218015FFF717FF6D
:100D10000021A015FFF713FF25E0B648844209D152
:100D200001210804FFF7FEFE00214FF48030FFF799
:100D3000F9FE18E0B048844209D101214804FFF7C8
:100D4000F1FE00214FF40030FFF7ECFE0BE0AB4862
:100D5000844208D101218804FFF7E4FE00214FF40A
:100D60008020FFF7DFFE10BD00220288944B9842DE
:100D70000ED0994B98420BD0B0F1804F08D0914BD8
:100D8000984205D0904B984202D0904B984204D1A3
:100D90004FF68F731A404B881A438D4B984207D0F9
:100DA0008C4B984204D04FF6FF431A40CB881A432D
:100DB00002808B8883850B880385814B98420BD0FA
:100DC000854B984208D08B4B984205D08A4B98426D
:100DD00002D08A4B984201D10B7A03860123838289
:100DE000704770B5002400220023058C4FF6FE7674
:100DF00035400584028C8388048B4FF68F752C4018
:100E0000B51E2C400D882C43751E2A400D892A439F
:100E10004D882A436A4DA8420BD06F4DA84208D096
:100E2000744DA84205D0744DA84202D0734DA8421B
:100E300013D14FF6F7752A404D892A434FF6FB75BB
:100E40002A408D882A434FF6FF652B404FF6FF5509
:100E50002B408D892B43CD892B4383800483CD8800
:100E60008586028470BD70B5002400220023058CA5
:100E70004FF6EF7635400584028C8388048B48F664
:100E8000FF752C404FF6FF452C400D884FF6FF763E
:100E900006EA05252C434FF6DF752A400D8906EA40
:100EA00005152A434D8806EA05152A43444DA842F4
:100EB00002D0494DA8421DD14FF67F752A404D8979
:100EC0004FF6FF7606EA05152A434FF6BF752A400E
:100ED0008D8806EA05152A434FF6FF352B404FF261
:100EE000FF752B408D8906EA85052B43CD8906EADF
:100EF00085052B4383800483CD880587028470BDDC
:100F000070B5002400220023058C4FF6FF663540A3
:100F10000584028C8388848B4FF68F752C404FF6A6
:100F2000FC752C400D882C434FF6FF552A400D8947
:100F30004FF6FF7606EA05252A434D8806EA052581
:100F40002A431F4DA84202D0234DA8421DD14FF283
:100F5000FF752A404D894FF6FF7606EA05252A439C
:100F60004FF6FF352A408D8806EA05252A434EF6BE
:100F7000FF752B404DF6FF752B408D8906EA051550
:100F80002B43CD8906EA05152B4383808483CD88C6
:100F90008587028470BD70B5002200230024058C73
:100FA0004EF6FF7635400584038C8488828B48F6A4
:100FB000FF752A404FF6FF452A400D8820E00000CB
:100FC000002C01400004004000080040000C0040DC
:100FD000001000400014004000340140004C01406B
:100FE000005001400054014000180040001C004027
:100FF0000020004000400140004401400048014002
:101000004FF6FF7606EA05252A434DF6FF752B407D
:101010000D8906EA05352B434D8806EA05352B4335
:10102000FA4DA84202D0FA4DA84208D14BF6FF75FE
:101030002C408D894FF6FF7606EA85152C43848077
:101040008283CD88A0F84050038470BD828B4FF21C
:10105000FF331A408283828B4FF6FF7303EA01232A
:101060001A4382837047F0B50C46154600220021D2
:101070000026078C4EF6FF7C07EA0C070784828B5C
:10108000018C4FF6FF7707EA043640F6FF473A40F7
:101090004FF6FF7707EA05273A434FF6FF7707EA4F
:1010A00003373A43D94FB8420ED0D94FB8420BD08C
:1010B000B0F1804F08D0D74FB84205D0D64FB842D4
:1010C00002D0D64FB84206D14DF6FF77394046F4EC
:1010D0008057394305E047F6FF57394044F48057BD
:1010E000394382830184F0BD828B4FF6F3731A403B
:1010F0008283828B0A4382837047F0B50C46154683
:10110000002200210026078C4FF6FF6C07EA0C072F
:101110000784828B018C4FF6FF7707EA04264FF68F
:101120000C773A404FF6FF7707EA03172F433A430D
:10113000B64FB8420ED0B64FB8420BD0B0F1804F88
:1011400008D0B44FB84205D0B34FB84202D0B34F25
:10115000B84206D14FF6FF57394046F480773943FD
:1011600005E04FF2FF57394044F4807739438283DA
:101170000184F0BD028B4FF2FF331A400283028BD1
:101180004FF6FF7303EA01231A4302837047F0B559
:101190000C461546002200210026078C4FF6EF7CF6
:1011A00007EA0C070784028B018C4FF6FF7707EAEA
:1011B000041640F6FF473A404FF6FF7707EA033739
:1011C0003A434FF6FF7707EA05273A438F4FB84275
:1011D0000ED08F4FB8420BD0B0F1804F08D08D4F5A
:1011E000B84205D08C4FB84202D08C4FB84206D1DD
:1011F0004FF6DF77394046F01007394305E04FF6E8
:101200005F77394044F01007394302830184F0BD11
:10121000028B4FF6F3731A400283028B0A43028358
:101220007047F0B50C46154600220021068C4FF69B
:10123000FE773E400684028B018C4FF60C763240DE
:101240007E1C06EA03162E433243704EB0420ED087
:101250006F4EB0420BD0B0F1804F08D06D4EB0420F
:1012600005D06D4EB04202D06C4EB04206D14FF662
:10127000FD76314044F00106314305E04FF6F57646
:10128000314044F00106314302830184F0BD70B562
:1012900005460C465D4885420ED05D4885420BD020
:1012A000B5F1804F08D05B48854205D05A48854249
:1012B00002D05A48854200D100E000BF208850B9D2
:1012C0002389A28861882846FFF7ABFFE18828467A
:1012D000FFF79EFF25E0208804280AD12389A288F1
:1012E00061882846FFF753FFE1882846FFF742FF51
:1012F00017E0208808280AD12389A2886188284617
:10130000FFF7FBFEE1882846FFF7EEFE09E02389A0
:10131000A28861882846FFF7A6FEE1882846FFF7E5
:1013200095FE70BD2DE9F04105460C4600260127CB
:10133000608808B9022600E00026A088012801D1B3
:10134000022700E001272088A0B92389A2886188AC
:101350002846FFF766FFE1882846FFF759FF2389F3
:101360003A4631462846FFF712FFE1882846FFF744
:1013700001FF13E02389A28861882846FFF707FF51
:10138000E1882846FFF7F6FE23893A46314628468B
:10139000FFF747FFE1882846FFF73AFFBDE8F081F5
:1013A0000A884B881A438B881A43CB881A430B89C7
:1013B0001A434B891A438B891A43A0F8442070477B
:1013C0004FF6FF71818000210180C1804180017250
:1013D00070470021018041808180C180018141816D
:1013E0008181C1817047002101804180012181807C
:1013F0000021C180018170470021018041808180EE
:10140000C18001814181818170470000002C014031
:10141000003401400004004000080040000C00407F
:1014200021B1028842F00102028004E002884FF6F6
:10143000FE731A400280704731B1B0F8442042F484
:101440000042A0F8442005E0B0F84420C2F30E02A8
:10145000A0F8442070471AB183890B43838102E0CE
:1014600083898B43838170478182704741EA0203FD
:10147000A0F8483070471AB183890B43838102E09A
:1014800083898B438381704701894FF6F87211403D
:10149000018170470A46002101894FF68F73194078
:1014A00011430181704730B504460D462946204658
:1014B000FFF7F0FF208940F00700208130BD2DE9C3
:1014C000F04104460D4616461F46602D06D13B46A8
:1014D000012231462046FFF75AFE05E03B46012235
:1014E00031462046FFF79DFE29462046FFF7D2FFF2
:1014F000208940F007002081BDE8F08130B50C461E
:1015000000210189C9B24FF6FF7505EA032515438D
:1015100025432943018130BD2DE9F04105460E46A2
:1015200017469846002443463A4631462846FFF778
:10153000E5FF2C894FF6F870044044F007044FF69D
:101540008F70044044F070042C81BDE8F081F0B548
:1015500004460D4616461F463B463246294620465F
:10156000FFF7CCFF208940F480402081F0BD018549
:10157000828270470A46002101884FF68F73194016
:10158000114301807047F0B50C4615461E460021F8
:10159000002200230189028B038C4FF6F877394033
:1015A00021434FF6FC473A4040F201173A434FF6C9
:1015B000DD773B404FF6FF7707EA06172F433B43A3
:1015C000018102830384F0BD0A460021018B4FF69E
:1015D0008F7319401143018370470A460021018B24
:1015E00048F6FF7319404FF6FF7303EA02231943CD
:1015F000018370470A460021818B4FF68F73194093
:101600001143818370470A460021818B48F6FF739E
:1016100019404FF6FF7303EA022319438183704791
:1016200021B1028842F08002028004E002884FF675
:101630007F731A400280704721B1828842F0040211
:10164000828004E082884FF6FB731A4082807047E4
:1016500021B1828842F00802828004E082884FF63D
:10166000F7731A408280704721B1828842F00102EC
:10167000828004E082884FF6FE731A4082807047B1
:101680000A460021018B4FF6F7731940114301837D
:1016900070470A460021018B4FF2FF7319404FF645
:1016A000FF7303EA02231943018370470A460021AE
:1016B000818B4FF6F77319401143818370470A46B7
:1016C0000021818B4FF2FF7319404FF6FF7303EA3D
:1016D00002231943818370470A460021018B4FF68C
:1016E000FB7319401143018370470A460021018BA7
:1016F0004FF6FF3319404FF6FF7303EA02231943F5
:10170000018370470A460021818B4FF6FB73194015
:101710001143818370470A460021818B4FF6FF33C6
:1017200019404FF6FF7303EA022319438183704780
:101730000A460021018B4FF67F7319401143018344
:1017400070470A460021018BC1F30E014FF6FF736B
:1017500003EA02231943018370470A460021818B63
:101760004FF67F7319401143818370470A46002169
:10177000818BC1F30E014FF6FF7303EA0223194375
:10178000818370470A460021018C4FF6FD73194092
:101790001143018470470A460021018C4FF6F7730C
:1017A00019401143018470470A460021018C4FF60D
:1017B000DF7319404FF6FF7303EA021319430184E4
:1017C00070470A460021018C4FF67F7319404FF68F
:1017D000FF7303EA02131943018470470A4600218C
:1017E000018C4FF6FF5319404FF6FF7303EA0223B3
:1017F0001943018470470A460021018C4FF2FF73A0
:1018000019404FF6FF7303EA02231943018470471E
:101810000A460021018C4DF6FF7319404FF6FF7305
:1018200003EA023319430184704730B500230124D1
:101830008C40A3B2048C9C430484048C02FA01F50E
:10184000ADB22C43048430BD30B5002304248C4059
:10185000A3B2048C9C430484048C02FA01F5ADB25B
:101860002C43048430BD70B5034600200024184684
:10187000183001258D40ACB21D8CA5431D8409B1E3
:10188000082909D100EB6100056825F070050560A5
:101890000568154305600EE00D1FC5F34E0528448D
:1018A000056825F4E045056005684FF6FF7606EA11
:1018B00002263543056070BD21B1028842F0020264
:1018C000028004E002884FF6FD731A4002807047E0
:1018D00021B1028842F00402028004E002884FF63F
:1018E000FB731A400280704721B1828842F0800267
:1018F000828004E082884FF67F731A4082807047AE
:1019000002884FF6F7731A40028002880A43028069
:10191000704782884FF68F731A40828082880A430C
:101920008280704702894FF6F8731A40028102895B
:101930000A430281704702894FF67F731A40028181
:1019400002890A430281704781847047818570470C
:10195000818670470187704781877047A0F84010E3
:10196000704702884FF6FF431A40028002880A43FC
:10197000028070470146888E70470146088F704785
:101980000146888F70470146B1F840007047014614
:10199000888C70470146088D704702460020138AE4
:1019A0000B4201D0012000E000207047CA430282B0
:1019B000704730B50246002000230024158A05EA4E
:1019C0000103958905EA010413B10CB1012000E07F
:1019D000002030BDCA4302827047000010B50446A3
:1019E000FB48844209D101218803FFF79BF80021BD
:1019F0004FF48040FFF796F832E0F648844209D170
:101A000001214804FFF79BF800214FF40030FFF755
:101A100096F825E0F048844209D101218804FFF7B7
:101A20008EF800214FF48020FFF789F818E0EB488A
:101A3000844209D10121C804FFF781F800214FF445
:101A40000020FFF77CF80BE0E548844208D1012133
:101A50000805FFF774F800214FF48010FFF76FF8C6
:101A600010BD2DE9F04786B005460E460024A2467B
:101A700000BFA1460027B08900B100BF2F462C8AC5
:101A80004CF6FF700440F08804432C82AC894EF67B
:101A9000F3100440B0883189084371890843044336
:101AA000AC81AC8A4FF6FF400440B0890443AC825D
:101AB00001A8FEF7B0FFC648874202D1DDF810A0AA
:101AC00001E0DDF80CA0A88910F4004F08D00AEB63
:101AD000CA0000EB0A1031684900B0FBF1F807E0DA
:101AE0000AEBCA0000EB0A1031688900B0FBF1F87C
:101AF0006420B8FBF0F004012009642101FB108987
:101B0000A88910F4004F08D0322000EBC900B0FBC8
:101B1000F1F000F00700044308E0322000EB091068
:101B20006421B0FBF1F000F00F0004432C8106B0FB
:101B3000BDE8F0874FF41651016000218180C1801B
:101B400001810C21418100218181704710B502463D
:101B50000020108A4FF2FF0318400B884C88234363
:101B60008C882343CC8823431843108210BD002166
:101B7000018041808180C180704721B1828942F417
:101B80000052828104E082894DF6FF731A408281FF
:101B90007047F0B503460024002600250020A1F57B
:101BA00010676A3F00D100BF1846C1F3421401F02C
:101BB0001F06012707FA06F5012C01D10C3004E0BD
:101BC000022C01D1103000E014301AB107682F4305
:101BD000076002E00768AF430760F0BD1AB1838A6F
:101BE0000B43838202E0838A8B4383827047028A9D
:101BF0004FF6F0731A400282028A0A43028270474B
:101C000082894FF2FF731A40828182890A4382815E
:101C1000704721B1828942F00202828104E0828908
:101C20004FF6FD731A4082817047028A4FF6DF73C8
:101C30001A400282028A0A430282704721B1028A54
:101C400042F48042028204E0028A4BF6FF731A409B
:101C500002827047C1F3080282807047014688887B
:101C6000C0F308007047818941F00101818170470C
:101C7000028BD2B20283028B42EA012202837047B6
:101C8000028B02F47F420283028B0A430283704775
:101C900021B1828A42F02002828204E0828A4FF6D9
:101CA000DF731A408282704721B1828A42F01002AB
:101CB000828204E0828A4FF6EF731A408282704774
:101CC00021B1828A42F00802828204E0828A4FF6C1
:101CD000F7731A408282704721B1828942F4004230
:101CE000828103E08289C2F30E028281704721B1B2
:101CF000828A42F40062828204E0828A4FF2FF7399
:101D00001A4082827047828A4FF6FB731A408282A1
:101D1000828A0A438282704721B1828A42F002029B
:101D2000828204E0828A4FF6FD731A4082827047F5
:101D300002460020B1F5007F00D100BF13880B429E
:101D400001D0012000E00020704701F40072B2F5DC
:101D5000007F00D100BFCA430280704770B50246C1
:101D60000024002300250020A1F510666A3E00D162
:101D700000BFC1F3421501F01F03012606FA03F369
:101D8000012D02D19689334006E0022D02D1168A38
:101D9000334001E0968A33400C12012606FA04F41F
:101DA0001688344013B10CB1012000E0002070BD52
:101DB00010B500220023A1F510646A3C00D100BFD9
:101DC0000A1201249440A3B2DC43048010BD000039
:101DD000003801400044004000480040004C0040F2
:101DE000005000401FB50020204A0123CDE901200A
:101DF00000930390034680221DA11F4800F068F95C
:101E000000201E4A0223CDE90120009303900346DF
:101E100080221BA11C4800F05BF900201B4A032311
:101E2000CDE901200093039003464FF4007218A1FE
:101E3000194800F04DF90020184A0423CDE901208B
:101E4000009303900346802215A1174800F040F943
:101E50001FBD012080F3108800BF00F06FF8FFF76E
:101E6000C1FF00F062FD00BFFEE700002800002077
:101E7000765461736B2031009D3400082C000020E3
:101E8000765461736B203200BD34000830000020AE
:101E9000765461736B2033000D3500083400002048
:101EA000765461736B203400DD340008704715A14F
:101EB00000200BE00A5C1E4B1A8000BF1C4A121F58
:101EC000128812F0400FF9D0421CD0B22B28F1D367
:101ED00000BFFEE700BFFEE700BFFEE700BFFEE772
:101EE000704710B501211348FFF763FD40B1124858
:101EF0000068401C1049086001210E48FFF76AFD88
:101F000010BD00000D0A20456E7465722048617294
:101F1000644661756C745F48616E646C65722C53C5
:101F2000797374656D2048616C742E200D0A000071
:101F300004380140000400408C00002010B54FF42C
:101F40004070FEF751FA01F037FB01F0B7FB4FF498
:101F5000E13001F057FB10BD00F1080141604FF086
:101F6000FF31816000F10801C16001610021016061
:101F7000704700210161704742684A6093688B6036
:101F8000936859609160086103685B1C0360704747
:101F900010B502460B685C1C01D1106907E002F124
:101FA000080000E04068446824689C42FAD944680C
:101FB0004C604C68A160886041600A611468641CD0
:101FC000146010BD01460A69D1E901309860D1E979
:101FD000010358605068884201D188685060002031
:101FE00008611068401E10601068704710B500242A
:101FF00007E004EB8401F84A02EB8100FFF7ACFF35
:10200000641C052CF5D3F548FFF7A6FFF448FFF74D
:10201000A3FFF448FFF7A0FFF348FFF79DFFF34845
:10202000FFF79AFFED48F2490860ED48F149086072
:1020300010BD2DE9F04704460F4616469946DDF8D7
:102040002080002507E0795D04F134004155785D7A
:1020500000B902E06D1C102DF5D300BF0021432014
:102060000155052E00D30426E662201DFFF781FFEF
:1020700004F11800FFF77DFF2461C6F10500A0619F
:1020800064620020E06484F85000BDE8F0872DE928
:10209000F04105460F461FB9A80001F06EF900E0B7
:1020A0003846064656B1542001F067F904460CB193
:1020B000266304E0304601F0BDF900E0002424B1BD
:1020C000A900A522206B01F00AFB2046BDE8F081A3
:1020D0002DE9FF4F81B0804615469946DDE90E7A1D
:1020E00028461099FFF7D3FF0446002C52D0681EF3
:1020F000216B01EB800B2BF0070B00953A46204635
:10210000119B0299FFF795FF4A464146584601F058
:102110006DF82060BAF1000F01D0CAF8004001F05C
:1021200099F8B5480068401CB3490860B348006896
:1021300040B9B24804600846006801280CD1FFF796
:1021400055FF09E0AE48006830B9AC480068C06A85
:10215000B84201D8A9480460AA480068401CA949AF
:10216000086008460068606494F82C1001208840DC
:10217000A54909680843A4490860E16A01EB8101A7
:10218000954A02EB8100211DFFF7F6FE012601F0C2
:102190006EF801E04FF0FF36012E09D19848006833
:1021A00030B196480068C06AB84201D201F048F8E0
:1021B000304605B0BDE8F08F8D490968096809B956
:1021C000012100E0002121B14FF0FF318F4A116061
:1021D00006E087490968C968C8688C4A4168116087
:1021E000704770B5054601F035F815B983480068A9
:1021F00000E028460446201DFFF7E4FE78B9E06AB7
:1022000000EB8000744951F8200040B994F82C107C
:10221000012088407C49096881437B480160A06AAD
:1022200018B104F11800FFF7CDFE211D6E48FFF72D
:10223000A3FE77480068401C754908607148006833
:10224000401C7049086001F012F86D48006860B1E8
:102250006A480068844202D100F0F2FF05E000F015
:10226000F9FFFFF7A9FF01F002F870BD2DE9F04179
:10227000002768480068002865D167480068401C4E
:1022800065490860084606688EB95948D0F800804C
:1022900058480068564908605648C0F800805F48B2
:1022A0000068401C5D490860FFF786FF00BF574883
:1022B000006886423BD300BF4D480068006808B9FB
:1022C000012000E0002020B14FF0FF304F490860AE
:1022D0002CE047480068C068C4686568AE4202D216
:1022E0004A48056022E0201DFFF76CFEA06A18B185
:1022F00004F11800FFF766FE94F82C1001208840C6
:1023000041490968084340490860E16A01EB8101DD
:10231000314A02EB8100211DFFF72EFE3749E06AAA
:102320000968C96A8842C7D30127C5E700BF334897
:102330000068C06A00EB8000274951F8200001289E
:1023400006D9012704E036480068401C344908607B
:102350003448006800B101273846BDE8F08170B507
:10236000002500F077FF2B480068401E29490860CF
:1023700008460068002874D11F480068002870D003
:1023800024E01848C068C46804F11800FFF71AFE7A
:10239000201DFFF717FE94F82C10012088401A49E1
:1023A0000968084318490860E16A01EB81010A4A9B
:1023B00002EB8100211DFFF7DFFD1049E06A09688B
:1023C000C96A884202D3012016490860054800689E
:1023D00008B9012029E027E094000020F80000203F
:1023E0000C010020200100203401002048010020C1
:1023F000680000206C000020400000203800002011
:102400004C0000205C0000204800002060000020FC
:102410003C00002064000020440000205800002000
:10242000500000205400002000200028A9D0FE48C1
:10243000006878B10AE0FFF719FF10B10120FB49ED
:102440000860F9480068401EF7490860F6480068CF
:102450000028F0D1F5480068012802D1012500F0DC
:10246000EFFE00F004FF284670BD10B50446F048AA
:1024700000684460EF480068844207D2EC48016875
:10248000091DED480068FFF783FD0CE0E84801688E
:10249000091DEA480068FFF77BFDE94800688442AF
:1024A00001D2E748046010BDE6480068401CE549D9
:1024B000086070472DE9F047044688464FF0000950
:1024C000FFF7F2FFDB480768206800EB080520688B
:1024D000B84207D92068A8420BD9BD4209D94FF0AC
:1024E000010906E02068A84201D8BD4201D94FF099
:1024F00001092560B9F1000F13D0CD480068001D17
:10250000FFF760FD50B9CA48006890F82C10012010
:102510008840CD4909688143CB4801602846FFF7D0
:10252000A4FFFFF71CFF06460EB900F089FEBDE8C8
:10253000F08770B504460026DCB1FFF7B5FFBD4853
:1025400000680519BA480068001DFFF73BFD50B947
:10255000B748006890F82C1001208840BA490968F3
:102560008143B94801602846FFF77FFFFFF7F7FE78
:1025700006460EB900F064FE70BD70B5044600F06A
:1025800069FE14B9AA48006800E020460646F56ACC
:1025900000F06DFE284670BD2DE9F0410446FDF7C0
:1025A00015FE064614B9A248006800E0204607461A
:1025B000FD6A3046FDF711FE2846BDE8F0812DE9A1
:1025C000F04780460D464FF00009052D00D3042545
:1025D00000F040FEB8F1000F02D19548006800E01D
:1025E00040460446E66AAE424BD0B5420BD990480D
:1025F000006884420DD08E480068C06AA84208D89E
:102600004FF0010905E08A480068844201D14FF08B
:102610000109E76AE562A06910F0004F02D1C5F137
:102620000500A06107EB8701884A02EB8101606920
:10263000884201D1012000E00020E0B1201DFFF719
:10264000C1FC30B90120B8407F49096881437E4808
:10265000016094F82C10012088407B4909680843E8
:1026600079490860E16A01EB8101784A02EB810057
:10267000211DFFF781FCB9F1010F01D100F0E0FD50
:1026800000BF00F0F4FDBDE8F0876E48006818B1A7
:102690000120664908601DE00020644908606A481E
:1026A0000068B0FA80F0C0F11F0101EB8102674BB6
:1026B00003EB820042685268426000F108024368FE
:1026C000934202D14268526842604268D268584BD5
:1026D0001A6000BF704770B5054600F0BBFD15B924
:1026E0005348006800E028460446201DFFF76AFCB6
:1026F00078B9E06A00EB8000544951F8200040B9F5
:1027000094F82C10012088404F49096881434E48B5
:102710000160A06A18B104F11800FFF753FC211DF5
:102720004B48FFF729FC00F0A2FD414800688442B5
:1027300012D14848006810B100F082FD15E044480D
:10274000006845490968884203D10020384908607B
:102750000BE0FFF79AFF08E03E48006828B100F060
:1027600079FDFFF729FD00F082FD70BD10B501462F
:1027700000200A46364C5369A34201D1012300E0F0
:10278000002373B1354C936AA34201D1012300E0C9
:10279000002333B9936A0BB9012300E0002303B18E
:1027A000012010BD70B505462C464CB3204800688A
:1027B000844225D000F04EFD2046FFF7D7FF0128C8
:1027C0001CD1201DFFF7FEFB94F82C10012088403F
:1027D0001D49096808431C490860E16A01EB810151
:1027E0001A4A02EB8100211DFFF7C6FB1049E06A7F
:1027F0000968C96A884201D300F022FD00F037FD64
:1028000070BD2DE9F041054600262C46FDF7DEFCA3
:1028100007462046FFF7AAFF012842D10948006871
:10282000C8BB0349E06A1BE05000002054000020B0
:1028300038000020440000206C00002068000020C8
:102840006000002064000020480000209400002068
:10285000480100204C000020400000202001002002
:102860000968C96A884200D30126201DFFF7AAFB28
:1028700094F82C1001208840F94909680843F84968
:102880000860E16A01EB8101F64A02EB8100211D3B
:10289000FFF772FB05E0FFE704F11801F248FFF7CC
:1028A0006BFB3846FDF799FC3046BDE8F08110B56A
:1028B0000446206B00F0BEFD204600F0BBFD10BDBD
:1028C00070B523E0FFF7F0FDE848006808B9012083
:1028D00000E000200546FFF742FDBDB900F0BAFC5C
:1028E000E248C068C468201DFFF76CFBE048006840
:1028F000401EDF490860DF480068401EDD4908606F
:1029000000F0B5FC2046FFF7D2FF00BFD9480068B1
:102910000028D7D170BD00BFFFF7D2FFD1480068B3
:102920000128F9D900F08CFCF6E71FB500200090D3
:102930000190029003468022CFA10390D048FFF778
:10294000C7FB0446012C0CD1FDF740FCA01ECD496D
:1029500008600120CC4908600020CC49086000F0E4
:1029600059FC1FBD10B5FDF731FC0020C6490860B9
:1029700000F065FC10BDC549086870470021C34AD6
:1029800010687047BA48006870470246002101E0AD
:10299000521C491C1078A528FAD0890888B27047C3
:1029A0002DE9F04706460C46904600252068002891
:1029B0004AD0204641684968416000F108014268F8
:1029C0008A4202D14168496841604168D1F80C905F
:1029D00000BF204641684968416000F10801426833
:1029E0008A4202D14168496841604168CF6806EB7C
:1029F0004510076007F1340006EB45114860786C1C
:102A000006EB4511886006EB451080F80C80F86AEB
:102A100006EB45110861B8F1030F05D1B86A18B18A
:102A2000022006EB45110873002006EB45114861B2
:102A300006EB45118861386BFFF7A7FF06EB4511E0
:102A400088836D1C4F45C4D12846BDE8F0872DE929
:102A5000F04105468846164600240527FFF724FD69
:102A60008348006880452FD300BF7F1E07EB870295
:102A70007C4B03EB820105EB44100122FFF790FF32
:102A80000444002FF1D105EB44100222804909686B
:102A9000FFF786FF044405EB441002227D490968D4
:102AA000FFF77EFF044405EB441004226F49FFF753
:102AB00077FF044405EB441003227749FFF770FFCA
:102AC00004440EB100203060FFF749FC2046BDE809
:102AD000F08170B506460C467048016818313046E2
:102AE000FFF756FA6D480068001DFFF76BFA50B902
:102AF0006A48006890F82C100120884058490968FD
:102B0000814357480160601C06D164480168091D73
:102B10006148FFF731FA05E05C480068051928466E
:102B2000FFF7A3FC70BD2DE9F04107460D461446A2
:102B300045F00040594909688861584801681831D2
:102B40003846FFF719FA55480068001DFFF73AFAB2
:102B500050B95248006890F82C1001208840404934
:102B6000096881433E480160601C06D14B480168FA
:102B7000091D4948FFF700FA05E0444800680619B6
:102B80003046FFF772FCBDE8F08170B50646F0688C
:102B9000C46804F11800FFF715FA41480068A8B9A5
:102BA000201DFFF70FFA94F82C10012088402C49C3
:102BB000096808432A490860E16A01EB8101294A52
:102BC00002EB8100211DFFF7D7F904E004F11801A1
:102BD0002548FFF7D1F93149E06A0968C96A884296
:102BE00004D9012501202F49086000E0002528466E
:102BF00070BD2DE9F04105460F4647F000402860C2
:102C0000EC682846FFF7DEF9201DFFF7DBF994F8A2
:102C10002C100120884012490968084310490860B7
:102C2000E16A01EB81010F4A02EB8100211DFFF7F0
:102C3000A3F91A49E06A0968C96A884204D90126D9
:102C400001201849086000E000263046BDE8F08108
:102C50001549096801600D49096841607047000025
:102C600048000020940000202001002034010020B2
:102C7000400000203C00002049444C45000000007A
:102C800017290008600000204C00002044000020AC
:102C9000680000206C00002048010020380000205F
:102CA00064000020540000205800002070B5044645
:102CB0000D4600F0CFFAFE4802682868401C01D19A
:102CC000002619E0FB4920680968884204D0606842
:102CD000904201D801260FE06068101A29688842E6
:102CE00009D228686168511A401A28602046FFF707
:102CF000AFFF002600E0012600F0B9FA304670BDB3
:102D00000120ED4908607047014611B10A46906CF8
:102D100000E00020704708B102469164704770B52A
:102D200005460E463146284600F0F2FC284600F0E3
:102D3000E8FC044602E020202855641C0F2CFAD33E
:102D400000202855281970BD7FB505460020287041
:102D5000DA4800680390D9490968480100F00DFB82
:102D60000446002C49D0002220460399FFF76FFE4D
:102D700003900020029039E0029804EB4010007BA1
:102D8000012806D0022806D0032806D0042808D13E
:102D900005E0522607E0422605E0532603E04426DC
:102DA00001E0002600BF00BF029804EB401041681C
:102DB0002846FFF7B4FF0546029804EB40108068F0
:102DC000029904EB4111898BCDE90010029804EBC4
:102DD00040103246BAA10369284600F0DBFC2846C1
:102DE00000F08FFC05440298401C0290DDE90201CE
:102DF0008842C1D3204600F01DFB7FBDB44909685D
:102E00008869B3490968C96AC1F10501B04A126805
:102E1000916170472DE9F04106460C4600F01AFA20
:102E2000AB480068C06C38BB0120A949096881F82B
:102E300050000CB3A6480068001DFFF7C3F850B956
:102E4000A348006890F82C1001208840A149096827
:102E50008143A0480160601C06D19D480168091D9E
:102E60009D48FFF789F805E0914800680719384642
:102E7000FFF7FBFA00F0E4F900F0F9F900F0EAF9E5
:102E800093480068C56C65B126B100209049096877
:102E9000C86406E08E49096801F14C00C96C491EFE
:102EA000016000208A49096881F8500000F0DFF9CC
:102EB0002846BDE8F0812DE9F047074688461546CB
:102EC0001C4600F0C7F98248006890F850000228BC
:102ED0002FD07F49096801F14C00C96CB9430160EA
:102EE00001207B49096881F8500014B378480068D4
:102EF000001DFFF767F850B97548006890F82C106E
:102F00000120884073490968814372480160601C50
:102F100006D16F480168091D6F48FFF72DF806E0DC
:102F20006348006800EB04094846FFF79EFA00F08A
:102F300087F900F09CF900F08DF91DB16448006834
:102F4000C06C28606248006890F85000012801D1E8
:102F5000002608E05E49096801F14C00C96C21EACD
:102F600008010160012600205949096881F85000D4
:102F700000F07DF93046BDE8F0872DE9F047814645
:102F80000D4616461F464FF0010A4C4600F062F906
:102F90000FB1E06C386094F85080022084F8500043
:102FA000052E17D2DFE806F01503070B0D00E06CC5
:102FB0002843E0640EE0E06C401CE0640AE0E56455
:102FC00008E0B8F1020F01D0E56401E04FF0000A1B
:102FD00000E000BF00BFB8F1010F1CD1201DFEF7BB
:102FE000F1FF94F82C10012088403A490968084301
:102FF00038490860E16A01EB8101384A02EB81003F
:10300000211DFEF7B9FF3249E06A0968C96A8842A2
:1030100001D900F015F900F02AF95046BDE8F08713
:103020002DE9F84F81460D4616461F46DDF828A0CB
:103030004FF0010B4C46FDF7C9F800900FB1E06C62
:10304000386094F85080022084F85000052E17D282
:10305000DFE806F01503070B0D00E06C2843E06481
:103060000EE0E06C401CE0640AE0E56408E0B8F1C2
:10307000020F01D0E56401E04FF0000B00E000BF5B
:1030800000BFB8F1010F45D11548006850BB201DA5
:10309000FEF798FF94F82C10012088400D4909682C
:1030A00008430C490860E16A01EB81010B4A1AE010
:1030B0004400002058000020540000204000002060
:1030C0000925630925750925750925750D0A00006F
:1030D0003800002048000020480100209400002013
:1030E0006400002005E002EB8100211DFEF744FF93
:1030F00004E004F118013648FEF73EFF3549E06A66
:103100000968C96A884205D9BAF1000F02D00120C6
:10311000CAF800000098FDF760F85846BDE8F88F3F
:103120002DE9F04105460E462C46FDF74FF8804646
:1031300094F85070022084F85000E06C401CE06469
:10314000012F26D124480068A8B9201DFEF73AFFB8
:1031500094F82C10012088402049096808431F4931
:103160000860E16A01EB81011D4A02EB8100211D2B
:10317000FEF702FF04E004F118011548FEF7FCFE1B
:103180001449E06A0968C96A884202D90EB101206F
:1031900030604046FDF721F8BDE8F08170B5044687
:1031A000264616B90B48006800E03046064600F097
:1031B00051F896F85000022804D1002086F85000FB
:1031C000012500E0002500F052F8284670BD0000FF
:1031D000200100203800002064000020480000206A
:1031E00094000020FCF7F2FF00BFFEE7001F4FF045
:1031F00080730360001F0160001F2B4B03601438B5
:1032000002602038704729484FF0E02148610720CC
:103210000861704710B52648006840F47F002449D3
:1032200008600846006840F07F400860FFF7EBFF49
:10323000002020490860FCF797FF002010BD704770
:103240004FF080501A491C390860BFF34F8FBFF30D
:103250006F8F704710B5FCF7B9FF16480068401C27
:1032600014490860BFF34F8FBFF36F8F10BD10B5C7
:1032700010480068401E0F4908600846006810B9F1
:103280000020FCF7AAFF10BD10B5FCF79FFFFEF76A
:10329000EDFF20B14FF0805005491C390860002037
:1032A000FCF79BFF10BD0000E53100083F1901004D
:1032B00020ED00E07000002010B50146714800E0EC
:1032C000006803688B42FBD30246436813448B4279
:1032D00004D143684C682344436001460A464B6866
:1032E00013440468A34211D1674C03682468A342C5
:1032F00008D04B680468646823444B6003681B680B
:103300000B6005E0604B1B680B6001E003680B601D
:10331000884200D0016010BD30B54FF488435B484F
:1033200010F0070F05D0C01D20F00700574C041BFC
:103330001B1B0246534C22600024524D6C60D01877
:10334000083820F00700504C206000244E4D2D68B6
:103350006C604D4D2D682C601146441A4C604A4CEF
:1033600024680C604A4D4C682C604A4D4C682C60B7
:103370004FF00044484D2C6030BD2DE9F04105462A
:103380004FF00008FFF790F83F48006808B9FFF7D2
:10339000C3FF41480068054247D145B1083515F0E3
:1033A000070F04D005F00700C0F108000544002D08
:1033B0003BD038480068854237D8324E30460468E2
:1033C00001E0264624686068A84202D220680028EE
:1033D000F7D12D480068844227D0306800F10808F2
:1033E000206830606068401B102807D96719606842
:1033F000401B786065603846FFF75EFF25496068CE
:103400000968081A234908600846006820490968C5
:10341000884203D21F4800681D4908601E49606841
:1034200009680843606000202060FEF798FF40466E
:10343000BDE8F08170B506463546D6B1083D2C464C
:10344000154960680968084213D0206888B9124994
:103450006068096888436060FFF726F80D49606876
:10346000096808440B4908602046FFF725FFFEF76E
:1034700076FF70BD074800687047054800687047D0
:103480007047000084000020740000205C010020D0
:103490007C00002078000020800000200DE020212A
:1034A0001848FDF71CF96420FFF743F82021154860
:1034B000FDF713F96420FFF73CF8F0E70DE08021F9
:1034C0001148FDF70AF9C820FFF733F880210E48AC
:1034D000FDF705F9C820FFF72CF8F0E711E04FF4ED
:1034E00080710948FDF7F9F84FF49670FFF721F85D
:1034F0004FF480710448FDF7F2F84FF49670FFF72F
:1035000018F8ECE7000C0140001C0140FEB012E08E
:1035100009A000F02FF911A000F02CF901A8FFF785
:1035200013FC01A91AA000F025F91BA000F022F954
:103530001420FEF7FEFFEBE7204672656552544FFC
:103540005320B4AEBFDAB4F2D3A1C8CECEF1D6B414
:10355000D0D0C7E9BFF620200D0A0000C8CECEF1BA
:10356000C3FB202020202020C8CECEF1D7B4CCAC85
:103570002020D3C5CFC8BCB62020CAA3D3E0D5BB7A
:103580002020C8CECEF1D0F2BAC50D0A000000004E
:1035900025730D0A00000000C8CECEF1C3FB202029
:1035A000D4CBD0D0BCC6CAFD2020CAB9D3C3C2CAAE
:1035B00020200D0A0000000008B501218820FDF739
:1035C00097FA2020ADF8000010208DF803000320AA
:1035D0008DF8020069460948FCF7D4FF4FF4C0702B
:1035E000ADF8000010208DF8030003208DF80200D4
:1035F00069460348FCF7C6FF08BD0000000C014007
:10360000001C014010B586B0044601210420FDF7DE
:103610006FFA01218803FDF76BFA4FF40070ADF8E3
:10362000140018208DF8170003208DF8160005A946
:103630002048FCF7A7FF4FF48060ADF81400042089
:103640008DF8170005A91B48FCF79CFF019400208A
:10365000ADF81000ADF80800ADF80A00ADF80C00A8
:103660000C20ADF80E0001A91348FEF7FAF901216C
:103670001148FEF782FA06B010BD70B504460D463B
:10368000E1B20D48FEF7E6FA00BF80210A48FEF7D6
:103690004FFB0028F9D0204670BD10B5044600BF8E
:1036A00020210548FEF744FB0028F9D00248FEF728
:1036B000D5FA10BD000801400038014008B51D20B2
:1036C0008DF8000003208DF8010000208DF8020025
:1036D00001208DF803006846FCF78BFE08BDD2B2CE
:1036E00001E000F8012B491EFBD270470022F6E7EB
:1036F00010B513460A4604461946FFF7F0FF204668
:1037000010BD421C10F8011B0029FBD1801A704724
:10371000034611F8012B00F8012B002AF9D11846B5
:10372000704730B50B46014600202022012409E0F5
:1037300021FA02F59D4205D303FA02F5491B04FA6A
:1037400002F52844151EA2F10102F1DC30BD000093
:10375000064C074D06E0E06840F0010394E80700DE
:1037600098471034AC42F6D3FCF7E6FCA0390008C9
:10377000C03900080FB4054B10B503A9044A0298DC
:1037800000F02CF810BC5DF814FB00007B3600083C
:10379000900000200FB4084B10B504A902AA0398AA
:1037A00000F01CF8044602A9002000F0F3F82046BF
:1037B00010BC5DF814FB00009539000802E008C851
:1037C000121F08C1002AFAD170477047002001E09B
:1037D00001C1121F002AFBD1704700002DE9FF4FE5
:1037E0008BB09A460F4605460026C9E0252837D1FA
:1037F00000246D1C6649A04601222B78203B02FA6A
:1038000003F0084202D004436D1CF6E728782E2806
:1038100017D115F8010F44F004042A280ED06FF0D8
:103820002F022878A0F1300109290AD808EB880175
:1038300002EB410100EB01086D1CF2E757F8048B25
:103840006D1C287869283FD006DC002871D06328D9
:103850000CD0642804D137E0732811D075284ED0DD
:1038600052460D99904706F1010688E017F8040BBF
:103870008DF8000000208DF80100E946012003E0EA
:1038800057F8049B4FF0FF3061074FF0000401D45C
:103890000AE0641C44450DDA8442FADB19F804108E
:1038A0000029F6D106E0641C8442FCDB19F8041000
:1038B0000029F8D1264404E019F8010B52460D996D
:1038C0009047641EF8D25AE001CF4FF00A0B00284F
:1038D00004DAC0F100004FF02D0102E0210504D50B
:1038E0002B218DF82410012103E0E10705D02021D0
:1038F000F7E70DF1200908910CE00021F9E701CF6D
:103900004FF00A0BF9E75946FFF70BFF01F13002C0
:1039100009F8012D0028F6D1ADEB090000F1200BCC
:10392000600701D44FF00108D84503DDA8EB0B0078
:1039300001E029E000208046002406E009A8524664
:10394000005D0D999047761C641C08988442F5DB55
:1039500004E0302052460D999047761CB8F10001E2
:10396000A8F10108F5DC05E019F8010B52460D99A4
:103970009047761CBBF10001ABF1010BF4DC6D1C30
:10398000287800287FF432AF0FB03046BDE8F08FC2
:10399000092801000A68531C0B6010707047000072
:1039A000C03900080000002094000000BC37000867
:1039B000543A000894000020CC480000CC3700089E
:1039C00000A24A04000000000000000001020304FD
:1039D00006070809000000000102030401020304B5
:1039E00006070809020406080000000000000000A5
:1039F00000000000000000000000000000000000C7
:103A000000000000000000000000000000000000B6
:103A100000000000000000000000000000000000A6
:103A20000000000000000000000000000000000096
:103A3000AAAAAAAA000000000000000000000000DE
:103A40000000000000000000000000000000000076
:043A50000000000072
:0400000508000131BD
:00000001FF
